:020000040800F2
:1000000060040020D5000008630900085F090008AB
:1000100000000000000000000000000000000000E0
:10002000000000000000000000000000DF090008E0
:100030000000000000000000DD090008E1090008E0
:10004000000000000000000000000000E7000008C1
:10005000E7000008E7000008E7000008E7000008E4
:100060000000000000000000000000000000000090
:10007000E7000008E7000008E700000800000000B3
:1000800000000000E700000800000000E700000892
:10009000000000000000000000000000E700000871
:1000A00000000000E7000008000000005D0D0008EF
:1000B0000000000000000000000000000000000040
:1000C0000348854600F03CF8004800478D0D0008C5
:1000D000600400200448804704480047FEE7FEE72C
:1000E000FEE7FEE7FEE7FEE7E9090008C1000008B9
:1000F00030B50B46014600202022012409E00D46C0
:10010000D5409D4205D31D469540491B2546954047
:1001100040191546521E002DF1DC30BDD2B201E06F
:100120000270401C491EFBD270470022F6E710B552
:1001300013460A4604461946FFF7F0FF204610BD55
:10014000064C0125064E05E0E36807CC2B430C3C2A
:1001500098471034B442F7D3FFF7B6FF700E00088B
:10016000900E000830B587B004460D461048844212
:100170000DD100BF0F48406B022108430D49486371
:100180000846406B02210840019000BF00BF1421C7
:1001900002A8FFF7CAFF02950120039000200490F7
:1001A000059002A9204600F09DF807B030BD000080
:1001B0000004005000100240F0B587B004460D4620
:1001C00017461E46324884420FD100BF31480068AE
:1001D0000121890308432F4908600846006801216E
:1001E00089030840019000BF00BF05200007854239
:1001F0000FD100BF27484038406B012108432549F3
:10020000403948630846406BC007C00F019000BFEB
:1002100000BF0520000786420FD100BF1D484038AF
:10022000406B012108431B49403948630846406B35
:10023000C007C00F019000BF00BF142102A8FFF744
:1002400074FF029702200390012004900220059081
:100250000D98069002A9284600F044F80C980290E8
:1002600002A9304600F03EF80B4804600A490E9897
:100270004860002108488160C160016181610C21F2
:1002800041610021C16100F078FA07B0F0BD0000C3
:1002900000380140401002401000002008B5054918
:1002A0004143009100BF00BF00994A1E00920029FF
:1002B000F9D108BDB80B000070B5044600F0F4F8A1
:1002C00006462546681C002802D0054800682D18FF
:1002D00000BF00F0E9F8801BA842FAD370BD00000F
:1002E0000C00002070B503460022CBE001269640AA
:1002F0000C683440002C71D04D68022D02D04D683E
:10030000122D15D1D508AE001D462035A859550728
:10031000EE0E0F25B5400646AE4330465607F60EA4
:100320000D69B5402843D508AD001E4620367051F2
:10033000186856000325B5400646AE4330460D7991
:10034000AD07AD0F5600B540284318604D68012D2C
:1003500008D04D68022D05D04D68112D02D04D6892
:10036000122D18D1986856000325B5400646AE43B5
:1003700030465600CD68B54028439860586801253E
:1003800095400646AE43304610264D6835402D094F
:10039000954028435860D86856000325B540064666
:1003A000AE43304656008D68B5402843D8600126DC
:1003B00036074D683540B54263D1354D9608B600D5
:1003C000A8599507EE0E0F25B5400646AE433046B8
:1003D00005252D07AB4202D1002506E051E02D4D49
:1003E000AB4201D1012500E002259607F60EB5408B
:1003F0002843274D9608B600A851254D203528687A
:100400000546A5432846012636044D683540B542C9
:1004100002D10546254328461D4D203528606868D1
:100420000546A5432846012676044D683540B54269
:1004300002D1054625432846154D20356860144DE8
:10044000603D28680546A5432846012636054D68C7
:100450003540B54202D10546254328460C4D603D46
:10046000286068680546A5432846012676054D683C
:100470003540B54202D1054625432846044D603D2E
:100480006860521C0D68D540002D00D02EE770BD6D
:10049000601802400004005042690A40002A01D05E
:1004A000816200E081617047014800687047000088
:1004B0000400002003480068034909684018014906
:1004C00008607047040000200C00002010B50024D4
:1004D000032000F009F8002801D0012401E000F019
:1004E00033F8204610BD0000F8B504460025134837
:1004F000006800281ED0114801687D20C000FFF769
:10050000F7FD074639460E480068FFF7F1FD06463D
:1005100000F06CF800280BD1042C07D200222146F1
:10052000401E00F03FF80748046004E0012502E0A7
:10053000012500E001252846F8BD00000C00002040
:10054000000000200800002008B500BF0E48006829
:10055000012108430C49086008460068C007C00F25
:10056000009000BF00BF00BF07484038C06B89053E
:10057000084305494039C8630846C06B0904084070
:10058000009000BF00BF08BD4010024000BFC2067F
:10059000D20E01219140024A116000BF7047000055
:1005A00000E100E070B504460D4616462946204697
:1005B00000F0D8F970BD00000148006870470000E5
:1005C0000000002000B5FFF7F7FF06498968072201
:1005D00012031140090B8900034A515CC906C90E78
:1005E000C84000BD00100240300E000870B504463F
:1005F0002546681E0949884201D901200CE0681E81
:10060000074948610321081F00F0ACF900200449A4
:10061000886107200861002070BD0000FFFFFF0017
:1006200000E000E07047FEB50446206805682068D9
:10063000C66820684769002001902807000F0190D4
:10064000019800280BD120202840002807D0202026
:100650003040002803D0204600F034FAFEBD019857
:10066000002859D0F807C00F002804D1FF202130FE
:100670003040002850D0E807C00F002808D0FF20E5
:1006800001303040002803D0206C01210843206451
:1006900004202840002807D0F807C00F002803D006
:1006A000206C02210843206402202840002807D043
:1006B000F807C00F002803D0206C042108432064F1
:1006C00008202840002807D0F807C00F002803D0D2
:1006D000206C082108432064206C00281BD02020B7
:1006E0002840002806D020203040002802D0204694
:1006F00000F0E8F9206C08210840002806D02046C8
:1007000000F0B2F92046FFF78DFF04E02046FFF726
:1007100089FF00202064A1E710202840002811D084
:100720001020304000280DD000BF0020009020682D
:100730000068009020684068009000BF00BF20461D
:1007400000F01AF880202840002807D08020304090
:10075000002803D0204600F0CBFA7FE74020284055
:10076000002807D040203040002803D0204600F069
:100770008CF973E700BF71E7704710B50446002C91
:1007800001D1012010BDA069002800D000E000BF09
:100790003D20005D002805D100213C200155204668
:1007A00000F030F824213D2001552068C068012167
:1007B000490388432168C860204600F0C7F9206AD1
:1007C000002802D0204600F033F92068006901219A
:1007D000C90288432168086120684069082188436C
:1007E000216848612068C0680121490308432168E5
:1007F000C8600020206420213D2001553E20015585
:100800000020BFE710B586B0044600BF1E48406B0D
:10081000022108431C4948630846406B02210840F6
:10082000009000BF00BF00BF174840300068490378
:1008300008431549403108600846006801218903D2
:100840000840009000BF00BF1020019002200290DD
:1008500001200390022004900120059001A90B487B
:10086000FFF740FD202001900120059001A90748D5
:10087000FFF738FD012200211B20FFF793FE1B200C
:10088000FFF784FE06B010BD0010024000040050C7
:1008900010B503463E20C05C202832D1002901D08B
:1008A000002A01D1012010BD00BF3C20C05C0128FE
:1008B00001D10220F7E701243C20C45400BF596352
:1008C0001A875A870020186422243E20C45400BF8F
:1008D00000243C20C45400BF1868C068FF240134C1
:1008E00020431C68E06018684069012420431C68AC
:1008F00060611868C068202420431C68E060002004
:10090000D1E70220CFE7000070B504461049206807
:1009100088421BD10F48407A0A2813D10D48807AAB
:100920000B280FD10B48C07A0C280BD1002507E00B
:1009300002210948FFF7B0FDC820FFF7BDFC6D1C80
:100940000A2DF5DB0C21034800F0B0F870BD000063
:10095000003801405400002000040050704700BFE0
:10096000FEE7704710B5002819DA1A4A03071B0F73
:10097000083B9B089B00D2588307DC0EFF23A34053
:100980009A438B071B0E8407E40EA3401A43114BB6
:100990000407240F083CA408A4001A5118E00E4ACA
:1009A00003231B02D21883089B00D2588307DC0E56
:1009B000FF23A3409A438B071B0E8407E40EA3403A
:1009C0001A43054B032424021B198408A4001A515E
:1009D00010BD00001CED00E000E100E07047704732
:1009E00010B5FFF767FD10BD10B50D484068000C4D
:1009F00000040C49096808430949486008464068F2
:100A000009490840074940318988090408430449D5
:100A10004860C803054988606420FFF73FFC10BDAB
:100A2000001002400001FF1FFFFF00FE00ED00E08C
:100A30004022016A1140002915D0016849699201DC
:100A40009143426A11430268516101221203416AD3
:100A5000914208D101684969032252039143826A95
:100A600011430268516170470168C968FF22213251
:100A700091430268D16001684969490849000268E8
:100A8000516120223E210A54704710B50446206867
:100A9000C068402188432168C86020213D2001555D
:100AA0002046FFF75BFF002010BD000070B5044634
:100AB0000D462A4621460248FFF7EAFE70BD0000B7
:100AC0001000002070B504463E20005D22283BD176
:100AD00001210903A06888420CD12069002809D1AE
:100AE000656B20684068C005C00D2880606B801C65
:100AF000606306E020684068C1B2626B501C6063AE
:100B00001170608F401E80B2608700281AD1206863
:100B1000C068202188432168C8602068C068FF2120
:100B2000013188432168C86020684069400840005E
:100B30002168486120213E2001552046FFF7E4FE50
:100B4000002070BD0020FCE70220FAE7FEB5044655
:100B500020680069012149038843E168084321684E
:100B600008612169A0680843616908430290206810
:100B7000C0685E490840029908432168C860E0697E
:100B80000290206840690121C90288430299084304
:100B90002168486120684069032109028843A169EE
:100BA0000843216848610121C902E06988424ED1A9
:100BB000FFF708FD05466268510019226A43104696
:100BC000FFF796FA06466421FFF792FA070162687A
:100BD000510019226A431046FFF78AFA06466268F6
:100BE000510019226A431046FFF782FA64210090EF
:100BF000FFF77EFA64214843301AC000323001907A
:100C0000FFF776FAF821084040003F18626851006B
:100C100019226A431046FFF76BFA064662685100D4
:100C200019226A431046FFF763FA64210090FFF728
:100C30005FFA64214843301AC00032300190FFF758
:100C400057FA4007400F3818216888604CE0FFF7DA
:100C5000B9FC05466268910019226A431046FFF705
:100C600047FA06466421FFF743FA070162689100DC
:100C700019226A431046FFF73BFA06466268910064
:100C800019226A431046FFF733FA64210090FFF7F8
:100C90002FFA64214843301A000132300190FFF7E7
:100CA00027FAF02108403F186268910019226A4330
:100CB0001046FFF71DFA06466268910019226A4342
:100CC0001046FFF715FA64210090FFF711FA64212E
:100CD0004843301A000132300190FFF709FA00074B
:100CE000000F381821688860FEBD0000F3E9FFFF9F
:100CF00010B501463D20405C21282CD1012424035D
:100D00008868A0420CD10869002809D1CA6A1088F5
:100D1000C005C00D0C686060C86A801CC86206E02F
:100D2000CB6A18780C686060C86A401CC862488E3C
:100D3000401E80B2488600280BD10868C068802415
:100D4000A0430C68E0600868C068402420430C6839
:100D5000E060002010BD0220FCE7000010B5024852
:100D6000FFF761FC10BD00001000002002E008C881
:100D7000121F08C1002AFAD170477047002001E015
:100D800001C1121F002AFBD1704700000EB5FFF70A
:100D90009DFB002211461B20FFF704FC1B20FFF7E0
:100DA000F5FB07210F48FFF7DDF9E12040020121A3
:100DB000802205231B0700920191029040221946D0
:100DC0000948FFF7F9F90C210848FFF76FFE07E023
:100DD00001210448FFF760FBFF20F530FFF76CFAB4
:100DE000F6E70000000400500038014054000020E5
:100DF00000000000000000000000000000000000F3
:100E000000000000000000000000000000000000E2
:100E100001000000020000000300000004000000C8
:100E200006000000070000000800000009000000A4
:100E300000000000000000000000000000000000B2
:100E40000100000002000000030000000400000098
:100E50000000000000000000000000000000000092
:100E600000366E01000000000000000000000000DD
:100E7000900E000800000020100000006C0D00081B
:100E8000A00E000810000020500400007C0D000897
:100E900000366E01000000000400000001000000A8
:04000005080000C12E
:00000001FF
