:020000040800F2
:1000000020020020D5000008290F0008250F000855
:1000100000000000000000000000000000000000E0
:10002000000000000000000000000000490F000870
:1000300000000000000000002B0F00084B0F00081C
:10004000E7000008E7000008E7000008E7000008F4
:10005000E7000008E7000008E7000008E7000008E4
:10006000E7000008E7000008E7000008E7000008D4
:10007000E7000008E7000008E7000008E7000008C4
:10008000E7000008E7000008E7000008E7000008B4
:10009000E7000008E7000008E7000008E7000008A4
:1000A000E7000008E7000008E7000008E700000894
:1000B000E7000008E7000008E7000008E700000884
:1000C0000348854600F04EF8004800472510000818
:1000D000200200200448804704480047FEE7FEE76E
:1000E000FEE7FEE7FEE7FEE7550F0008C100000847
:1000F00030B50B46014600202022012409E00D46C0
:10010000D5409D4205D31D469540491B2546954047
:1001100040191546521E002DF1DC30BD03460B433D
:100120009B0703D009E008C9121F08C0042AFAD2AD
:1001300003E00B780370401C491C521EF9D2704733
:10014000D2B201E00270401C491EFBD2704700226F
:10015000F6E710B513460A4604461946FFF7F0FFC6
:10016000204610BD064C0125064E05E0E36807CC8D
:100170002B430C3C98471034B442F7D3FFF7A4FF4D
:100180002C1100084C11000800BFFEE700B587B035
:10019000142102A8FFF7DBFF00BF1848406B0121C4
:1001A0000843164948630846406BC007C00F0190DA
:1001B00000BF00BF20200290032003900020049085
:1001C00002A90520000700F055F840200290032006
:1001D00003900020049002A90520000700F04AF8CF
:1001E00080200290032003900020049002A90520A3
:1001F000000700F03FF807B000BD0000001002400B
:1002000000B591B0302105A8FFF7A1FF00200190B3
:100210000290039004900F200590FF2001300A9077
:1002200000200B9012480089C004C00C0121490332
:1002300008430C90002006900D90089001200E902D
:1002400005A800F03DFB002801D0FFF79DFF072027
:1002500001900020029003900490002101A800F07A
:10026000C7F9002801D0FFF78FFF11B000BD0000D3
:100270000032FF1F70B503460022D0E001269640F1
:100280000C683440002C71D04D68022D02D04D68AE
:10029000122D15D1D508AE001D462035A859550799
:1002A000EE0E0F25B5400646AE4330465607F60E15
:1002B0000D69B5402843D508AD001E462036705163
:1002C000186856000325B5400646AE4330460D7902
:1002D000AD07AD0F5600B540284318604D68012D9D
:1002E00008D04D68022D05D04D68112D02D04D6803
:1002F000122D18D1986856000325B5400646AE4326
:1003000030465600CD68B5402843986058680125AE
:1003100095400646AE43304610264D6835402D09BF
:10032000954028435860D86856000325B5400646D6
:10033000AE43304656008D68B5402843D86001264C
:1003400036074D683540B54268D1384D9608B6003D
:10035000A8599507EE0E0F25B5400646AE43304628
:1003600005252D07AB4202D100250BE056E0304DAC
:10037000AB4201D1012505E02E4DAB4201D1022552
:1003800000E003259607F60EB5402843274D960852
:10039000B600A851254D203528680546A5432846B6
:1003A000012636044D683540B54202D10546254345
:1003B00028461E4D2035286068680546A543284616
:1003C000012676044D683540B54202D105462543E5
:1003D0002846164D20356860144D603D2868054656
:1003E000A5432846012636054D683540B54202D161
:1003F0000546254328460D4D603D28606868054642
:10040000A5432846012676054D683540B54202D100
:10041000054625432846054D603D6860521C0D6821
:10042000D540002D00D029E770BD000060180240C3
:1004300000040050000800500148006870470000A8
:100440000400002003480068034909684018014976
:1004500008607047040000200C00002010B5002444
:10046000032000F009F8002801D0012401E000F089
:1004700033F8204610BD0000F8B5044600251348A7
:10048000006800281ED0114801687D20C000FFF7D9
:100490002FFE074639460E480068FFF729FE06463C
:1004A00000F024FD00280BD1042C07D200222146A5
:1004B000401E00F033F80748046004E0012502E024
:1004C000012500E001252846F8BD00000C000020B1
:1004D000000000200800002008B500BF0E4800689A
:1004E000012108430C49086008460068C007C00F96
:1004F000009000BF00BF00BF07484038C06B8905AF
:10050000084305494039C8630846C06B09040840E0
:10051000009000BF00BF08BD4010024070B5044607
:100520000D4616462946204600F030FD70BD70B5D8
:1005300004460025002C01D1012070BDA07A0528B9
:1005400001D10120F9E7A07A002800D1607220468D
:1005500000F007F8A07A002801D10120A0722846F7
:10056000EBE7704701460020002901D101203BE064
:100570008A7A052A01D1012036E08A7A012A32D10D
:100580004A68002A0ED1194A526B20231A43174B8E
:100590005A631A46126B02231A43144B1A6304223D
:1005A0008A7221E04A68012A0ED1104A526B402318
:1005B0001A430E4B5A631A46126B40231A430B4BD5
:1005C0001A6304228A720FE0084A526B80231A438E
:1005D000064B5A631A46126BDB141A43034B1A6319
:1005E00004228A7200E001207047000000030140ED
:1005F00070B504460D46002C01D1012070BD6B483A
:1006000000688007800FA84218D2684800688008F8
:100610008000284365490860FFF70EFF064607E0A3
:10062000FFF70AFF801B6249884201D90320E5E7F2
:100630005E4800688007800FA842F1D1022120683F
:100640000840022815D1042120680840042807D159
:100650005848806807210903884340185549886035
:10066000544880680F2109028843A1680843514912
:1006700088602078C007C00F002854D06068012827
:1006800008D14C48006801214904084000282ED1B7
:100690000120B3E76068002808D1464800680121BE
:1006A00089020840002822D10120A7E760680228BB
:1006B00008D140480068012149060840002816D1A9
:1006C00001209BE76068042808D13A484030C0699F
:1006D0000221084000280AD101208FE73548403028
:1006E000006A02210840002801D1012086E7314834
:1006F0008068C008C000616808432E498860FFF721
:100700009BFE064607E0FFF797FE801B28498842BC
:1007100001D9032072E727488068382108406168C2
:10072000C9008842EFD1214800688007800FA842A5
:1007300018D91E4800688008800028431B490860BB
:10074000FFF77AFE064607E0FFF776FE801B1849A2
:10075000884201D9032051E7144800688007800FC0
:10076000A842F1D1042120680840042808D111488A
:100770008068072109038843E16808430D498860C0
:1007800000F020F80B4989680F2212021140090A73
:100790008900094A515CC906C90EC840074908606A
:1007A00007480068FFF768FE28E7000000200240C5
:1007B000881300000010024078100008000000209C
:1007C00008000020F0B58BB014223A4905A8FFF7C5
:1007D000A5FC3848143001460EC9C06801AC0EC4EF
:1007E00004903548806838210840002818D13248E4
:1007F000006809020840C10A012088400A902E487A
:100800004068072149030840450B042D00D9002505
:10081000A90005AA50580A99FFF76AFC044645E06A
:100820002548806838210840082801D1234C3DE044
:100830002148806838210840102825D11E48C0680A
:100840008707BF0F1C48C0680C2108408008800043
:1008500001A90E58022F05D0032F11D11748344695
:10086000444310E014484068072149030840450B01
:10087000042D00D90025A80005A90C58744302E0F6
:10088000059C744300BF11E00B4880683821084084
:10089000202801D1840209E00748806838210840F7
:1008A000182802D10124E40300E0002420460BB004
:1008B000F0BD0000081100080010024000366E0173
:1008C000F0B587B00446FE4903C905910490FC4980
:1008D000083103C903910290002C02D1012007B016
:1008E000F0BD2078C007C00F00286DD0F54886689D
:1008F00038210E40C0688707BF0F102E01D1032F8B
:1009000001D0082E0BD1EF480068012149040840AE
:1009100000286CD06068002869D10120DFE760689A
:1009200000280DD0A068002808D0E648006980089B
:100930008000A1680843E349086101E00120CEE797
:1009400000BF012109046068884205D1DD480068C4
:100950000843DC49086021E00521090460688842F9
:100960000ED1D8480068012189040843D5490860A0
:1009700008460068012109040843D24908600DE0D7
:10098000D0480068012109048843CE490860084620
:100990000068012189048843CA49086000BF606873
:1009A000002812D0FFF748FD054606E0FFF744FD9A
:1009B000401BC82801D9032091E7C24800680121E3
:1009C000490408400028F1D011E0FFF735FD054645
:1009D00006E0FFF731FD401BC82801D903207EE760
:1009E000B84800680121490408400028F1D10221DB
:1009F00020680840022874D1B24880683821084035
:100A00000646B048C0688707BF0F102E01D1022FDD
:100A100001D0002E48D1AB4800680121890208406E
:100A2000002804D06069002801D1012057E7A548BB
:100A30004068000C0004E1690843A2494860FFF7E0
:100A4000FBFC054606E0FFF7F7FC401B022801D936
:100A5000032044E79B4800680121890208400028E0
:100A6000F1D0002E18D1974800680721C9028843A9
:100A7000A169084393490860FFF7A4FE914989687A
:100A80000F2212021140090A89008F4A515CC906DF
:100A9000C90EC8408D4908608D480068FFF7ECFC1E
:100AA000002848D001201AE7606900282AD085482C
:100AB00000680721C9028843A16908438149086089
:100AC00008460068891508437E490860FFF7B4FCB2
:100AD000054607E0FFF7B0FC401B022802D90320BF
:100AE000FDE628E0774800680121890208400028D7
:100AF000F0D074484068000C0004E1690843714973
:100B0000486018E06F480068FF21013188436D4953
:100B10000860FFF791FC054606E0FFF78DFC401BDF
:100B2000022801D90320DAE666480068012189021B
:100B300008400028F1D1082120680840082849D140
:100B4000604880683821084018280BD15D48403043
:100B5000006A0221084000283CD0206A002839D1D0
:100B60000120BCE6206A00281AD056484030006AAE
:100B700001210843534940310862FFF75DFC0546F7
:100B800006E0FFF759FC401B022801D90320A6E626
:100B90004C484030006A022108400028F1D019E09A
:100BA00048484030006A40084000464940310862E9
:100BB000FFF742FC054606E0FFF73EFC401B02281B
:100BC00001D903208BE63F484030006A02210840EB
:100BD0000028F1D104212068084004287CD100209D
:100BE0000190384880683821084020280BD13548CA
:100BF0004030C0690221084000286ED0E06800281B
:100C00006BD101206BE62F48C06B010F0120884398
:100C1000002810D000BF2B48C06B012109070843F2
:100C20002849C8630846C06B09040840009000BF0B
:100C300000BF0120019027480068FF2101310840D2
:100C4000002816D123480068084322490860FFF7AE
:100C5000F3FB054606E0FFF7EFFB401B022801D936
:100C600003203CE61B480068FF21013108400028B2
:100C7000F1D0E068002817D003210904206908405A
:100C8000002808D10F480069884301214904411810
:100C90000C48016108E00B480069032109048843FE
:100CA000216908430749086100BFE068012817D19E
:100CB00004484030C06901210843024940310DE039
:100CC000F810000800100240781000080000002012
:100CD000080000200070004054E052E0C8611BE0B2
:100CE000E06805280CD17E48C069042108437C498E
:100CF000C8610846C069012108437949C8610BE011
:100D00007748C069400840007549C8610846C06915
:100D1000042188437249C86100BFE068002812D0EE
:100D2000FFF78AFB054607E0FFF786FB401B6D498E
:100D3000884201D90320D2E56948C06902210840F0
:100D40000028F1D011E0FFF777FB054607E0FFF739
:100D500073FB401B6349884201D90320BFE560480B
:100D6000C069022108400028F1D10198012808D16A
:100D70005B484038C06B0121090788435849403916
:100D8000C86300BF606A002874D055484038806846
:100D90003821084010286ED0606A02286DD1504872
:100DA000403800680121090688434D4940390860F0
:100DB000FFF742FB054606E0FFF73EFB401B02281B
:100DC00001D903208BE546484038006801214906D7
:100DD00008400028F0D1E06A80080690A06A032845
:100DE0000DD10698800004A908583F49884211D8BF
:100DF0000698800002A908583B4988420AD3A06A95
:100E0000022809D100F092F80699890004AA5158E5
:100E1000884201D2012062E531484038C06880082C
:100E20008000A16A08432E494039C8600846C0685E
:100E30000C218843E16A084329494039C8600846C3
:100E40000068012109060843254940390860FFF779
:100E5000F3FA054606E0FFF7EFFA401B022801D936
:100E600003203CE51E48403800680121490608403F
:100E70000028F0D031E022E0FFE719484038006850
:100E80000121090688431649403908600846C068B0
:100E900080088000C860FFF7CFFA054606E0FFF73C
:100EA000CBFA401B022801D9032018E50C48403832
:100EB00000680121490608400028F0D10DE0606A71
:100EC000012800D10BE506484038C768B907890FEB
:100ED000A06A814201D0012001E50020FFE400006A
:100EE000401002408813000000366E0170B50446C1
:100EF0002546681E0949884201D901200CE0681E78
:100F0000074948610321081F00F040F80020044908
:100F1000886107200861002070BD0000FFFFFF000E
:100F200000E000E000BFFEE77047704704484068FB
:100F3000072252031040410B8800024A10587047A4
:100F400000100240D8100008704710B5FFF77AFA79
:100F500010BD000009484068400E400601214903C9
:100F60004018074989680843064909890904084364
:100F700002494860C8030449886070470010024075
:100F80000032FF1F4033FF1F00ED00E010B50028C6
:100F900019DB1A4A03231B02D21883089B00D2587C
:100FA0008307DC0EFF23A3409A438B071B0E8407A5
:100FB000E40EA3401A43114B032424021B19840896
:100FC000A4001A5118E00E4A03071B0F083B9B08A8
:100FD0009B00D2588307DC0EFF23A3409A438B0764
:100FE0001B0E8407E40EA3401A43054B0407240F8D
:100FF000083CA408A4001A5110BD000000E100E064
:101000001CED00E002E008C8121F08C1002AFAD156
:1010100070477047002001E001C1121F002AFBD178
:101020007047000008B5FFF719FAFFF7E9F8FFF776
:10103000ADF800BF0D48C06B0121890708430B497B
:10104000C8630846C06B89040840009000BF00BF19
:10105000074808490860012048600846FFF767FA1A
:101060000448FFF77FFA00BFFEE7000000100240CF
:1010700000030140100000200000000000000000FC
:101080000000000000000000000000000000000060
:10109000000000000000000001000000020000004D
:1010A000030000000400000006000000070000002C
:1010B000080000000900000000000000000000001F
:1010C000000000000000000001000000020000001D
:1010D000030000000400000000093D0000127A0037
:1010E0000024F4004086510100366E0100093D00E5
:1010F00000093D0000093D00001BB7000024F4007A
:1011000000366E0100366E0100093D0000127A00C3
:101110000024F4004086510100366E0102000000F8
:101120000300000002000000020000004C11000853
:101130000000002010000000041000085C110008EE
:1011400010000020100200001410000800127A00A5
:0C1150000000000004000000010000008E
:04000005080000C12E
:00000001FF
