:020000040800F2
:10000000C8020020D5000008A10A00089D0A0008C7
:1000100000000000000000000000000000000000E0
:10002000000000000000000000000000A50A000819
:100030000000000000000000A30A0008A70A000852
:10004000E7000008E7000008E7000008E7000008F4
:10005000E7000008E7000008E7000008E7000008E4
:10006000E7000008E7000008E7000008E7000008D4
:10007000E7000008E7000008E7000008E7000008C4
:10008000E7000008E7000008E7000008E7000008B4
:10009000E7000008E7000008E7000008E7000008A4
:1000A000E7000008E7000008E7000008E700000894
:1000B000810E0008E7000008E7000008E7000008DC
:1000C0000348854600F03CF800480047B51000089A
:1000D000C80200200448804704480047FEE7FEE7C6
:1000E000FEE7FEE7FEE7FEE7B10A0008C1000008F0
:1000F00030B50B46014600202022012409E00D46C0
:10010000D5409D4205D31D469540491B2546954047
:1001100040191546521E002DF1DC30BDD2B201E06F
:100120000270401C491EFBD270470022F6E710B552
:1001300013460A4604461946FFF7F0FF204610BD55
:10014000064C0125064E05E0E36807CC2B430C3C2A
:1001500098471034B442F7D3FFF7B6FFDC1100081C
:10016000FC11000800BFFEE770B504460025212001
:10017000005D022803D00420A063012549E0206827
:1001800000680E21884321680860206800684008E4
:1001900040002168086020492068884201D1012080
:1001A00026E01D4914312068884201D110201FE04B
:1001B000194928312068884201D1801518E0164974
:1001C0003C312068884201D1801411E0124950313D
:1001D0002068884202D10120000409E00E49643100
:1001E0002068884202D10120000501E001200006BC
:1001F00009490839486001212120015500BF00212B
:100200002020015500BF606B002802D02046616BA2
:100210008847284670BD00000800024070B50446BB
:1002200000F0F4F806462546681C002802D0054870
:1002300000682D1800BF00F0E9F8801BA842FAD32F
:1002400070BD00002800002070B503460022D0E0F9
:10025000012696400C683440002C71D04D68022D68
:1002600002D04D68122D15D1D508AE001D4620359F
:10027000A8595507EE0E0F25B5400646AE43304649
:100280005607F60E0D69B5402843D508AD001E4649
:1002900020367051186856000325B5400646AE4317
:1002A00030460D79AD07AD0F5600B54028431860B4
:1002B0004D68012D08D04D68022D05D04D68112DD7
:1002C00002D04D68122D18D1986856000325B5400C
:1002D0000646AE4330465600CD68B5402843986088
:1002E0005868012595400646AE43304610264D68B5
:1002F00035402D09954028435860D868560003259D
:10030000B5400646AE43304656008D68B54028439A
:10031000D860012636074D683540B54268D1384D62
:100320009608B600A8599507EE0E0F25B54006466B
:10033000AE43304605252D07AB4202D100250BE028
:1003400056E0304DAB4201D1012505E02E4DAB42C8
:1003500001D1022500E003259607F60EB54028439B
:10036000274D9608B600A851254D2035286805462A
:10037000A5432846012636044D683540B54202D1D2
:100380000546254328461E4D2035286068680546E9
:10039000A5432846012676044D683540B54202D172
:1003A000054625432846164D20356860144D603DAE
:1003B00028680546A5432846012636054D68354080
:1003C000B54202D10546254328460D4D603D2860C3
:1003D00068680546A5432846012676054D683540E0
:1003E000B54202D1054625432846054D603D68606B
:1003F000521C0D68D540002D00D029E770BD0000CB
:1004000060180240000400500008005001480068D5
:100410007047000020000020034800680349096875
:100420004018014908607047200000202800002083
:1004300010B50024032000F009F8002801D00124A1
:1004400001E000F033F8204610BD0000F8B5044686
:1004500000251348006800281ED0114801687D203F
:10046000C000FFF745FE074639460E480068FFF713
:100470003FFE064600F072F800280BD1042C07D28C
:1004800000222146401E00F045F80748046004E0C1
:10049000012502E0012500E001252846F8BD000005
:1004A00028000020000000202400002008B500BF24
:1004B0000E480068012108430C490860084600689E
:1004C000C007C00F009000BF00BF00BF0748403802
:1004D000C06B8905084305494039C8630846C06BAD
:1004E00009040840009000BF00BF08BD4010024052
:1004F0000146002909DB00BF00BFCB06DB0E01224D
:100500009A40034B1A6000BF00BF00BF7047000055
:1005100000E100E070B504460D4616462946204627
:1005200000F0C6FC70BD0000014800687047000084
:100530000000002000B5FFF7F7FF06498968072291
:1005400012031140090B8900034A515CC906C90E08
:10055000C84000BD001002409C11000870B5044660
:100560002546681E0949884201D901200CE0681E11
:10057000074948610321081F00F09AFC0020044944
:10058000886107200861002070BD0000FFFFFF00A8
:1005900000E000E010B50446A16C02A000F078FC79
:1005A00010BD000055617274204572726F722C206C
:1005B0004572726F72436F6465203D2025750D0A88
:1005C00000000000FEB50446206805682068C66883
:1005D000206847690020029001902807000F0290D0
:1005E000029800280BD120202840002807D0202086
:1005F0003040002803D0204600F0BDFAFEBD02982E
:10060000002872D0F807C00F002804D1FF20213045
:100610003040002878D0E807C00F002808D0FF201D
:1006200001303040002803D0A06C01210843A064B1
:1006300004202840002807D0F807C00F002803D066
:10064000A06C02210843A06402202840002807D0A3
:10065000F807C00F002803D0A06C04210843A06451
:1006600008202840002807D0F807C00F002803D032
:10067000A06C08210843A064A06C002843D020206F
:100680002840002806D020203040002802D02046F4
:1006900000F071FA2068406940210840800901900B
:1006A000A06C08210840002802D10198002825D01C
:1006B000204600F03FFA20684069402108400028A9
:1006C00018D020684069884321684861206C002860
:1006D0000CD02548216C4863206CFFF745FD0028AD
:1006E00011D0206C416B88470DE00DE02046FFF7EC
:1006F00051FF08E02046FFF74DFF04E02046FFF7DA
:1007000049FF0020A06479E710202840002811D07C
:100710001020304000280DD000BF0020009020683D
:100720000068009020684068009000BF00BF20462D
:1007300000F01CF880202840002807D0802030409E
:10074000002803D0204600F02DFB57E7402028402A
:10075000002807D040203040002803D0204600F079
:10076000FAF94BE700BF49E7210B0008704710B5C5
:100770000446002C01D1012010BDA069002800D042
:1007800000E000BF4520005D002805D10021442085
:100790000155204600F030F82421452001552068FD
:1007A000C0680121490388432168C860204600F0E1
:1007B00027FA206A002802D0204600F095F9206828
:1007C00000690921C90288432168086120684069DD
:1007D0002A218843216848612068C06801214903B3
:1007E00008432168C8600020A064202145200155ED
:1007F000462001550020BFE710B586B004462249C7
:10080000206888423DD100BF2048406B0121084349
:100810001E4948630846406BC007C00F009000BFE8
:1008200000BF00BF0846C06B0121490408431749B7
:10083000C8630846C06B012149040840009000BF0E
:1008400000BF0420019002200290012003900220AA
:1008500004900120059001A905200007FFF7F4FC92
:10086000082001900120059001A905200007FFF74D
:10087000EBFC012200211C20FFF74CFE1C20FFF79F
:1008800037FE06B010BD00000044004000100240DA
:1008900010B503464620C05C202832D1002901D083
:1008A000002A01D1012010BD00BF4420C05C0128F6
:1008B00001D10220F7E701244420C45400BF59634A
:1008C0001A875A870020986422244620C45400BF07
:1008D00000244420C45400BF1868C068FF240134B9
:1008E00020431C68E06018684069012420431C68AC
:1008F00060611868C068202420431C68E060002004
:10090000D1E70220CFE7000010B504460C220449CD
:10091000204600F086F8002801D0FFF723FC10BD28
:1009200010000020FFB583B004460D461746002096
:1009300001904520005D202871D1002D01D0002FAD
:1009400002D1012007B0F0BD01210903A06888424F
:1009500008D12069002805D1E807C00F002801D080
:100960000120EFE700BF4420005D012801D10220F3
:10097000E8E701214420015500BF0020A0642121A7
:1009800045200155FFF742FD01902786678601212A
:100990000903A068884205D12069002802D10026F9
:1009A000029502E02E46002002901EE0069800907C
:1009B000002280212046019B00F029FA002801D066
:1009C0000320BFE7002E09D102980088C005C00DA2
:1009D000216848600298801C029003E0307821680A
:1009E0004860761C608E401E6086608E0028DDD1D7
:1009F00006980090002240212046019B00F007FA53
:100A0000002801D003209DE720214520015500BF8B
:100A100000214420015500BF002093E7FFE702209A
:100A200090E710B503464520C05C202825D1002959
:100A300001D0002A01D1012010BD00BF4420C05CBC
:100A4000012801D10220F7E701244420C45400BF4B
:100A5000D9621A865A860020986421244520C454FD
:100A600000BF00244420C45400BF1868C06880241C
:100A700020431C68E0600020DEE70220DCE7000085
:100A800010B504460C2204492046FFF701FF002858
:100A900001D0FFF767FB10BD1000002000BFFEE78C
:100AA00070477047704710B5FFF7B6FC10BD0000E7
:100AB00009484068400E4006012149034018074993
:100AC00089680843064909890904084302494860BE
:100AD000C803044988607047001002400032FF1FBD
:100AE0004033FF1F00ED00E04022016A1140002961
:100AF00015D00168496992019143426A1143026825
:100B0000516101221203416A914208D10168496989
:100B1000032252039143826A114302685161704774
:100B200070B505466C6A0020608760862046FFF736
:100B300031FD70BD0168C968FF222132914302680E
:100B4000D160016849694908490002685161202261
:100B500046210A54704710B504462068C0684021F9
:100B600088432168C8602021452001552046FFF7B1
:100B700087FF002010BD70B504464620005D222886
:100B80003BD101210903A06888420CD120690028CB
:100B900009D1656B20684068C005C00D2880606B76
:100BA000801C606306E020684068C1B2626B501C24
:100BB00060631170608F401E80B2608700281AD178
:100BC0002068C068202188432168C8602068C06808
:100BD000FF21013188432168C860206840694008CE
:100BE0004000216848612021462001552046FFF73A
:100BF0008BFE002070BD0020FCE70220FAE7000019
:100C0000FEB5044620680069032109038843E168B2
:100C10000843216808612169A068084361690843A5
:100C200002902068C0685E49084002990843216824
:100C3000C860E0690290206840690121C9028843C8
:100C4000029908432168486120684069032109022C
:100C50008843A1690843216848610121C902E0690C
:100C600088424ED1FFF766FC0546626851001922A2
:100C70006A431046FFF73CFA06466421FFF738FA4C
:100C800007016268510019226A431046FFF730FAE3
:100C900006466268510019226A431046FFF728FA97
:100CA00064210090FFF724FA64214843301AC00001
:100CB00032300190FFF71CFAF821084040003F183D
:100CC0006268510019226A431046FFF711FA06467E
:100CD0006268510019226A431046FFF709FA64213D
:100CE0000090FFF705FA64214843301AC000323003
:100CF0000190FFF7FDF94007400F38182168886020
:100D00004CE0FFF717FC05466268910019226A4320
:100D10001046FFF7EDF906466421FFF7E9F90701F0
:100D20006268910019226A431046FFF7E1F906460E
:100D30006268910019226A431046FFF7D9F96421CD
:100D40000090FFF7D5F964214843301A0001323092
:100D50000190FFF7CDF9F02108403F18626891003B
:100D600019226A431046FFF7C3F9064662689100EC
:100D700019226A431046FFF7BBF964210090FFF780
:100D8000B7F964214843301A000132300190FFF76F
:100D9000AFF90007000F381821688860FEBD000019
:100DA000F3E9FFFF10B501464520405C21282CD116
:100DB000012424038868A0420CD10869002809D1C5
:100DC000CA6A1088C005C00D0C686060C86A801CC3
:100DD000C86206E0CB6A18780C686060C86A401C7C
:100DE000C862488E401E80B2488600280BD1086831
:100DF000C0688024A0430C68E0600868C068402494
:100E000020430C68E060002010BD0220FCE7FFB525
:100E100081B004460D4617460A9E24E0701C002847
:100E200021D0002E05D0FFF7F1FA0499401AB04204
:100E300019D92068C068FF21A13188432168C860A2
:100E40002068406940084000216848612021452011
:100E500001554620015500BF00214420015500BF27
:100E6000032005B0F0BD206800682840A84201D1E9
:100E7000012000E00020B842D0D00020F1E70000BF
:100E800010B50248FFF79EFB10BD000030000020A7
:100E90000FB410B503A9044B044A029800F054F8AB
:100EA00010BC08BC04B01847991000082C000020A2
:100EB00010B5002819DB1A4A03231B02D218830835
:100EC0009B00D2588307DC0EFF23A3409A438B0775
:100ED0001B0E8407E40EA3401A43114B0324240283
:100EE0001B198408A4001A5118E00E4A03071B0FAF
:100EF000083B9B089B00D2588307DC0EFF23A340CE
:100F00009A438B071B0E8407E40EA3401A43054B3C
:100F10000407240F083CA408A4001A5110BD0000C7
:100F200000E100E01CED00E002E008C8121F08C16B
:100F3000002AFAD170477047002001E001C1121F5A
:100F4000002AFBD170470000FFB58DB00446002594
:100F500006E025280AD0109A0F999047641C6D1C52
:100F600020780028F5D1284611B0F0BD00270121D6
:100F7000484A009700E00743641C23780846203B5A
:100F800098401042F7D120782E2817D1042007432B
:100F90006078641C2A280CD10E98641C02C8009149
:100FA0000E900BE000990A22514330394018641C1E
:100FB00000902078014630390929F3D9207800289B
:100FC000D1D0642808D0692806D075281ED0109A80
:100FD0000F9990476D1C5BE00A200E99019001C9A2
:100FE0000E91002802DA40422D2102E0390504D595
:100FF0002B216A461172012103E0F90704D0202158
:10100000F7E70BAE0B910DE00021FAE70A200E99ED
:10101000019001C90E91F7E70199FFF769F83031A6
:10102000761E31700028F7D103A8801B2030019074
:10103000780701D5009801E00120009001998842CD
:1010400001DD401A00E000200027009006E002A821
:10105000109AC05D0F9990476D1C7F1C0B988742BA
:10106000F5DB04E0109A30200F9990476D1C009931
:10107000481E00900029F5DC05E03078109A761CB7
:101080000F9990476D1C0199481E01900029F4DCCE
:10109000641C65E70928010013B50C467D23DB00BD
:1010A000012269460248FFF73DFC00981CBD000084
:1010B0007C00002086B0FFF7BBF900BF2148406BE1
:1010C000022108431F4948630846406B022108403B
:1010D000009000BF00BF142101A8FFF726F8C02030
:1010E0000190022002900120039002200490012030
:1010F000059001A91448FFF7A7F81448144908609F
:10110000E12040024860002111488160C160016116
:1011100081610C214161FFF72AFB0C220D490C482B
:10112000FFF77FFC002801D0FFF71CF808E0FF2044
:10113000F530FFF773F808480068401C064908605E
:10114000F5E7000000100240000400500044004099
:1011500030000020040000201C00002000000000DF
:10116000000000000000000000000000000000007F
:10117000000000000000000000000000010000006E
:101180000200000003000000040000000600000050
:101190000700000008000000090000000000000037
:1011A000000000000000000000000000010000003E
:1011B00002000000030000000400000000093D00E0
:1011C00000127A000024F4004086510100366E01BE
:1011D00000093D0000093D0000093D00FC11000828
:1011E0000000002030000000280F00082C1200082A
:1011F0003000002098020000380F000800127A002A
:101200000102030405060708090A0B0CFFFFFFFF94
:10121000FFFFFFFFFFFFFFFF0000000000000000D6
:0C122000040000000100000000000000BD
:04000005080000C12E
:00000001FF
