:020000040800F2
:10000000E8020020D5000008C31F0008BF1F000839
:1000100000000000000000000000000000000000E0
:10002000000000000000000000000000E51F0008C4
:100030000000000000000000C51F0008E71F0008C6
:10004000E7000008E7000008E7000008E7000008F4
:10005000E7000008E7000008E7000008E7000008E4
:10006000E7000008E7000008E7000008E7000008D4
:1000700089010008E7000008E7000008E700000821
:10008000E7000008E7000008E7000008E7000008B4
:10009000E7000008E7000008E7000008E7000008A4
:1000A000E7000008E7000008E7000008E700000894
:1000B000E7000008E7000008E7000008E700000884
:1000C0000348854600F04EF8004800479924000890
:1000D000E80200200448804704480047FEE7FEE7A6
:1000E000FEE7FEE7FEE7FEE7F11F0008C10000089B
:1000F00030B50B46014600202022012409E00D46C0
:10010000D5409D4205D31D469540491B2546954047
:1001100040191546521E002DF1DC30BD03460B433D
:100120009B0703D009E008C9121F08C0042AFAD2AD
:1001300003E00B780370401C491C521EF9D2704733
:10014000D2B201E00270401C491EFBD2704700226F
:10015000F6E710B513460A4604461946FFF7F0FFC6
:10016000204610BD064C0125064E05E0E36807CC8D
:100170002B430C3C98471034B442F7D3FFF7A4FF4D
:1001800094250008B425000810B5024800F027FBAC
:1001900010BD00002800002070B50446002520682E
:1001A0008068C007C00F012148404840002820D087
:1001B0002068806888432168886000F015FE054645
:1001C0000EE000F011FE401B022809D9E06A102160
:1001D0000843E062206B012108432063012070BDC9
:1001E00020688068C007C00F0121484048400028AF
:1001F000E7D10020F3E7000038B5044600250020D1
:10020000009020688068C007C00F01214840484026
:1002100000283BD12068806808432168886010204E
:10022000C0432168086040102168086018491948D7
:100230000068FFF75DFF14214843009002E000983A
:10024000401E009000980028F9D100F0CDFD054631
:1002500013E000F0C9FD401B02280ED9E06A10210E
:100260000843E062206B01210843206300BF0021A6
:100270002820015500BF012038BD20688068C007D4
:10028000C00F0121484048400028E2D00020F3E799
:1002900040420F000000002000B58DB000200A9001
:1002A0000B900C90242101A8FFF751FF00BF2248BA
:1002B00000680121490208431F4908600846006898
:1002C00049150840009000BF00BF48010190C001DF
:1002D000099001A800F0F6FF1848194908600020AD
:1002E0004860002116488160C160017401214161AC
:1002F000002101760121C16107214904016200F05A
:1003000029FB002801D000F01DF800200A900120F0
:100310000B9004200C900AA9094800F083F90028EA
:1003200001D000F00FF8064800F0E4F8002801D0F2
:1003300000F008F80DB000BD40100240002401405C
:100340002800002000BFFEE700B591B0302105A8CD
:10035000FFF7FDFE002001900290039004900F2013
:100360000590FF2001300A9000200B901248008970
:10037000C004C00C0121490308430C9000200690E2
:100380000D90089001200E9005A801F021FA002898
:1003900001D0FFF7D7FF07200190002002900390C3
:1003A0000490002101A801F091F8002801D0FFF786
:1003B000C9FF11B000BD00000032FF1F10B586B0AC
:1003C000044600BF00BF1448406B02210843124995
:1003D00048630846406B02210840009000BF00BF00
:1003E00000BF60000D49085A0190012002900020D2
:1003F000039002200490A100094A505801A900F07E
:100400000BFC6200054B995AA200054B985801223B
:1004100000F0E4FC06B010BD0010024044250008C6
:100420001000002000B587B000BF002001902E48CA
:10043000C06B0121490408432B49C8630846C06BBF
:10044000012149040840019000BF00BF2748284906
:100450000860E12040024860002125488160C160B9
:10046000016181610C21416101F0E4FC00BF1E4883
:10047000406B012108431C4948630846406BC00794
:10048000C00F019000BF00BF00BF0846406B0121B4
:100490000843154948630846406BC007C00F0190E8
:1004A00000BF00BF042002900220039001200490AE
:1004B000032005900120069002A90520000700F006
:1004C000ABFB082002900120069002A9052000073E
:1004D00000F0A2FB012200211C2000F009FD1C20DD
:1004E00000F0F4FC07B000BD0010024000440040E2
:1004F0009C000020F8B5044600260020009000BFB4
:100500002820005D012801D10220F8BD012128200A
:10051000015500BF2046FFF73FFE0646002E75D16D
:10052000E06A11210902884302210843E06248037E
:1005300000F0E8FC0746394638480068FFF7D8FD68
:100540004000009002E00098401E009000980028B3
:10055000F9D120688068C007C00F00280CD0E06A7D
:100560000221884310210843E06200BF00212820B7
:10057000015500BF0120C8E72068806808210843B2
:100580002168886000F030FC054611E000F02CFC8A
:10059000401B0A280CD9E06A022188431021084335
:1005A000E06200BF00212820015500BF0120ACE718
:1005B00020688068082108400028E7D1206880680A
:1005C000042108432168886000F00EFC054611E014
:1005D00000F00AFC401B0A280CD9E06A022188437B
:1005E00010210843E06200BF00212820015500BF10
:1005F00001208AE720688068042108400028E7D1AC
:10060000E06A0221884301210843E06200BF002123
:100610002820015500BF304677E700000000002089
:1006200070470000F8B505460C46002600200090F3
:1006300000BF2820405D012801D10220F8BD012122
:100640002820415500BF6068072812D22868806BB7
:100650002179491E8A008A181F21914088432279F6
:10066000521E9300D218216891400843296888637C
:1006700027E060680D2812D22868406B2179C91FD5
:100680008A008A181F21914088432279D21F930043
:10069000D2182168914008432968486311E028680E
:1006A000006B21790D398A008A181F2191408843F7
:1006B00022790D3A9300D2182168914008432968A5
:1006C00008632068142812D32868C0682178143978
:1006D0004A008A180721914088432278143A53002F
:1006E000D218A168914008432968C86025E02068B5
:1006F0000A2812D32868006921780A394A008A1822
:1007000007219140884322780A3A5300D218A16801
:1007100091400843296808610FE028684069217802
:100720004A008A1807219140884322785300D21842
:10073000A16891400843296848612068102802D0C8
:100740002068112827D11749286888421ED12868B7
:1007500080680121C905084000281CD128688068EC
:100760000843296888602068102814D10E490F4872
:100770000068FFF7BDFC0A214843009002E00098A2
:10078000401E009000980028F9D104E0E86A20217A
:100790000843E862012600BF00212820415500BF20
:1007A00030464BE70024014040420F00000000208B
:1007B00010B504462068006D03490880084601888A
:1007C00002A001F057FD10BD040000204368616ED7
:1007D0006E656C34203A2025750A0D00704710B5FF
:1007E00004462068406820210840202833D1206832
:1007F00000680221084002282DD1E06A102108403B
:10080000002803D1E06A49010843E062206880685B
:10081000072149040840884216D1207C002813D1C2
:10082000206840682021884321684860E06AFF21F1
:1008300001318843E062E06A09010840002803D1E1
:10084000E06A01210843E0622046FFF7B1FF122071
:10085000C0432168086020684068802108408028E3
:1008600041D1206800680421084004283BD1E06A97
:1008700010210840002803D1E06A49020843E062E1
:1008800020688068072109030840884210D020684A
:10089000406801218902084000281DD12068806835
:1008A000072149040840884216D1207C002813D132
:1008B000206840688021884321684860E06A0121FF
:1008C00009038843E062E06A09110840002803D167
:1008D000E06A01210843E0622046FFF7A1FE0C20F8
:1008E000C0432168086020684068402108404028D3
:1008F00010D120680068C007C00F00280AD0E06A45
:1009000089020843E062204600F0DAF80120C04383
:10091000216808602068006820210840202817D13D
:100920002068406809060840884211D12068806824
:1009300049150840002806D0206B02210843206397
:100940002046FFF74BFF2068016D204600F0E6F8D7
:1009500010BD0000F8B50446002700250026002041
:100960000090002C01D10120F8BDE068002802D1E0
:10097000207E002800D000BF207E002800D000BFCD
:10098000E06A002806D12063002128200155204676
:1009900000F098F82046FFF7FFFB0746E06A1021B9
:1009A000084000287ED1002F7CD1E06A1121090285
:1009B000884302210843E062216AA0680843217C41
:1009C000490008430643FF210131E068884202D014
:1009D000E068012802D1FF20013000E000206168BA
:1009E00008430543207E012812D1207C002807D12E
:1009F000E069401E40030121C9020843054307E0A6
:100A0000E06A20210843E062206B01210843206353
:100A100020684068274908402843216848602068CA
:100A2000806825490840304321688860FF210131F2
:100A3000E068884202D0E068012802D1FF2001303E
:100A400000E00020FF210131884202D0207E0128F1
:100A500003D1A08A401E000500902068006B0F2182
:100A60000905884300990843216808632068806865
:100A700012490840B04209D100202063E06A0221F7
:100A8000884301210843E06211E00BE0E06A0221A3
:100A9000884310210843E062206B01210843206352
:100AA000012704E0E06A10210843E062012738468C
:100AB0005AE70000FF16FFFCFDF7E1FFFE0E1FF1F5
:100AC0007047000010B586B00446142101A8FFF756
:100AD0003EFB00BF1048406B012108430E494863AC
:100AE0000846406BC007C00F009000BF00BF102039
:100AF0000190032002900020039001A90520000727
:100B000000F08AF8002211460C2000F0F1F90C20C8
:100B100000F0DCF906B010BD001002407047000084
:100B200070B50446002500BF2820005D012801D1D2
:100B3000022070BD01212820015500BF2046FFF78B
:100B40005BFB0546002D46D1E06A26490840FF219F
:100B500001310843E06220684068890008400028AD
:100B600005D0E06AC900884349100843E062E06AA2
:100B7000012109030840002804D0206B0621884386
:100B8000206301E00020206300BF002128200155E0
:100B900000BF2068006DC81E21680860206840689A
:100BA000114908432168486020688068072149048A
:100BB0000840884207D1206880680521090508435C
:100BC000216888600CE020688068012109050843DD
:100BD0002168886004E000BF00212820015500BF83
:100BE0002846A6E7FEF9FFFF2000002070B5044666
:100BF00000F0FAF806462546681C002802D0054891
:100C000000682D1800BF00F0EFF8801BA842FAD34F
:100C100070BD00002000002070B503460022D0E027
:100C2000012696400C683440002C71D04D68022D8E
:100C300002D04D68122D15D1D508AE001D462035C5
:100C4000A8595507EE0E0F25B5400646AE4330466F
:100C50005607F60E0D69B5402843D508AD001E466F
:100C600020367051186856000325B5400646AE433D
:100C700030460D79AD07AD0F5600B54028431860DA
:100C80004D68012D08D04D68022D05D04D68112DFD
:100C900002D04D68122D18D1986856000325B54032
:100CA0000646AE4330465600CD68B54028439860AE
:100CB0005868012595400646AE43304610264D68DB
:100CC00035402D09954028435860D86856000325C3
:100CD000B5400646AE43304656008D68B5402843C1
:100CE000D860012636074D683540B54268D1384D89
:100CF0009608B600A8599507EE0E0F25B540064692
:100D0000AE43304605252D07AB4202D100250BE04E
:100D100056E0304DAB4201D1012505E02E4DAB42EE
:100D200001D1022500E003259607F60EB5402843C1
:100D3000274D9608B600A851254D20352868054650
:100D4000A5432846012636044D683540B54202D1F8
:100D50000546254328461E4D20352860686805460F
:100D6000A5432846012676044D683540B54202D198
:100D7000054625432846164D20356860144D603DD4
:100D800028680546A5432846012636054D683540A6
:100D9000B54202D10546254328460D4D603D2860E9
:100DA00068680546A5432846012676054D68354006
:100DB000B54202D1054625432846054D603D686091
:100DC000521C0D68D540002D00D029E770BD0000F1
:100DD000601802400004005000080050002A01D0B2
:100DE000816100E08162704701480068704700003F
:100DF00018000020034800680349096840180149A9
:100E000008607047180000202000002010B5002462
:100E1000032000F009F8002801D0012401E000F0CF
:100E200033F8204610BD0000F8B5044600251348ED
:100E3000006800281ED0114801687D20C000FFF71F
:100E400057F9074639460E480068FFF751F906463C
:100E500000F0D4FF00280BD1042C07D20022214639
:100E6000401E00F045F80748046004E0012502E058
:100E7000012500E001252846F8BD000020000020E3
:100E8000000000201C00002008B500BF0E480068CC
:100E9000012108430C49086008460068C007C00FDC
:100EA000009000BF00BF00BF07484038C06B8905F5
:100EB000084305494039C8630846C06B0904084027
:100EC000009000BF00BF08BD40100240014600294D
:100ED00009DB00BF00BFCB06DB0E01229A40034BAB
:100EE0001A6000BF00BF00BF7047000000E100E0D3
:100EF00070B504460D4616462946204601F0CAF94B
:100F000070BD0000F0B589B005460020089014229D
:100F1000E84902A8FFF702F90120400485422AD1DE
:100F2000E548C469032109020C40006A0221084017
:100F3000002805D00802844202D180010890B6E161
:100F4000DD48C06902210840002805D0C80184425C
:100F500002D1C0010890AAE1D748403800680121B9
:100F6000490408400028EAD0032000028442E6D168
:100F7000D24808909BE1402D6FD006DC012D12D0A5
:100F8000022D48D0202D69D183E0E81FFF38FA38C0
:100F900000287CD01F214902401A79D00F218903F3
:100FA000401AF0D10DE1C448446980210C40002C66
:100FB00003D100F07BFB08902CE0BF48006A0221BF
:100FC0000840002810D0BC48C06909060840002825
:100FD0000AD1B948C06949100840002804D0802CC3
:100FE00002D14812089015E0B348C06902210840B8
:100FF00000280FD0B048C06909060840002809D071
:10100000AD48C06949100840002803D0802C01D1A8
:10101000481208904AE1A848446981150C40002C08
:1010200003D100F043FB089030E0A348006A02219E
:101030000840002813D0A048C069090608400028CD
:101040000DD19D48C06949100840002807D00814F8
:10105000844204D1C001089018E054E025E196488C
:10106000C06902210840002810D09348C0690906D1
:10107000084000280AD09048C0694910084000285C
:1010800004D00814844201D1C00108900EE174E03C
:10109000E0E08948446941150C40002C03D100F080
:1010A00005FB08902EE08448006A022108400028D1
:1010B00011D08148C0690906084000280BD17E483C
:1010C000C06949100840002805D0C813844202D1E5
:1010D0008001089016E07848C06902210840002885
:1010E00010D07548C0690906084000280AD0724827
:1010F000C06949100840002804D0C813844201D1B7
:1011000080010890D2E06C48446901150C40002C25
:1011100003D100F0CBFA08902EE06748006A022164
:101120000840002811D06448C0690906084000281A
:101130000BD16148C06949100840002805D08813C8
:10114000844202D14001089016E05B48C069022148
:101150000840002810D05848C069090608400028F7
:101160000AD05548C06949100840002804D08813A7
:10117000844201D14001089098E04F48446903211E
:1011800089040C40002C03D100F090FA089017E07D
:101190004948006A02210840002805D048048442DA
:1011A00002D1C01008900BE04348C06902210840FA
:1011B000002805D003208004844201D188030890D0
:1011C00074E03D48446940210C403B484038006889
:1011D000C9020840400C002804D0402C02D13848F5
:1011E000089036E03448403800680121490608403C
:1011F000400E00282DD0002C2BD12F484038C0683D
:101200008007800F07902C484038C0680C210840A8
:101210008008861C0798022806D0032814D130467F
:1012200027494843089013E0234840384068072185
:1012300049030840470B042F00D90027B80002A932
:1012400008587043089003E002984000089000BFDF
:1012500000BF2BE0184840380468032149050C40C2
:10126000002C04D100F022FA400808901CE0012074
:101270004005844204D100F019FA8008089013E078
:1012800001208005844207D100F010FA0621019068
:10129000FEF72EFF089007E003204005844203D1AB
:1012A00000F004FAC008089000E000BF00BF0898F2
:1012B00009B0F0BD80250008401002406CDC02003F
:1012C00000366E01F8B504460026002500270121EE
:1012D00049042068084088427ED17948C06BC90221
:1012E000084000280DD100BF7548C06B0843744901
:1012F000C8630846C06B09040840009000BF00BFE7
:10130000012770480068FF2101310840002816D1EC
:101310006C48006808436B490860FFF765FD0646A6
:1013200006E0FFF761FD801B022801D90320F8BD0C
:1013300064480068FF21013108400028F1D060486E
:101340004030C0690321090208400546002D33D012
:10135000A0690840A8422FD059484030C06988434E
:10136000054657484030C0690121090408435449E3
:101370004031C8610846C0690121090488435049C9
:101380004031C8610846C561E807C00F002813D086
:10139000FFF72AFD064607E0FFF726FD801B4A49B6
:1013A000884201D90320C2E745484030C069022184
:1013B000084040080028EFD041484030C069032170
:1013C00009028843A16908433D494031C861012FA2
:1013D00007D13B48C06B00E003E0890588433849EA
:1013E000C8632078C007C00F002809D034484030B7
:1013F0004069802188436168084331494031486130
:10140000022120680840022809D12D484030406957
:10141000C9018843A1680843294940314861202116
:1014200020680840202809D125484030406909013A
:101430008843E168084322494031486140212068DF
:101440000840402809D11E484030406909018843BE
:10145000216908431A494031486101214902206845
:10146000084088420AD11648403040690321890467
:101470008843616908431249403148610121890468
:1014800020680840884209D10D4840304069402119
:101490008843E16908430A494031486101218903D1
:1014A00020680840884208D10548006803214905A2
:1014B0008843216A084302490860002037E700009A
:1014C00000100240007000408813000070B5044610
:1014D0000D46002C01D1012070BD6B4800688007CB
:1014E000800FA84218D2684800688008800028430E
:1014F00065490860FFF778FC064607E0FFF774FCD3
:10150000801B6249884201D90320E5E75E480068F4
:101510008007800FA842F1D10221206808400228EC
:1015200015D1042120680840042807D15848806854
:10153000072109038843401855498860544880684A
:101540000F2109028843A168084351498860207827
:10155000C007C00F002854D06068012808D14C484B
:10156000006801214904084000282ED10120B3E77A
:101570006068002808D146480068012189020840B7
:10158000002822D10120A7E76068022808D140483E
:101590000068012149060840002816D101209BE778
:1015A0006068042808D13A484030C06902210840E8
:1015B00000280AD101208FE735484030006A022117
:1015C0000840002801D1012086E731488068C00822
:1015D000C000616808432E498860FFF705FC064695
:1015E00007E0FFF701FC801B2849884201D903204E
:1015F00072E727488068382108406168C90088423E
:10160000EFD1214800688007800FA84218D91E48F2
:1016100000688008800028431B490860FFF7E4FB4E
:10162000064607E0FFF7E0FB801B1849884201D916
:10163000032051E7144800688007800FA842F1D1C9
:10164000042120680840042808D111488068072137
:1016500009038843E16808430D49886000F03AF8BF
:101660000B4989680F2212021140090A8900094AB0
:10167000515CC906C90EC8400749086007480068A0
:10168000FFF7D2FB28E7000000200240881300008B
:1016900000100240C4240008000000201C000020AC
:1016A00001480068704700000000002000B5FFF707
:1016B000F7FF06498968072212031140090B8900C8
:1016C000034A515CC906C90EC84000BD0010024063
:1016D00004250008F0B58BB014223A4905A8FEF79E
:1016E0001DFD3848143001460EC9C06801AC0EC457
:1016F00004903548806838210840002818D13248C5
:10170000006809020840C10A012088400A902E485A
:101710004068072149030840450B042D00D90025E6
:10172000A90005AA50580A99FEF7E2FC044645E0D4
:101730002548806838210840082801D1234C3DE025
:101740002148806838210840102825D11E48C068EB
:101750008707BF0F1C48C0680C2108408008800024
:1017600001A90E58022F05D0032F11D11748344676
:10177000444310E014484068072149030840450BE2
:10178000042D00D90025A80005A90C58744302E0D7
:10179000059C744300BF11E00B4880683821084065
:1017A000202801D1840209E00748806838210840D8
:1017B000182802D10124E40300E0002420460BB0E5
:1017C000F0BD00005C2500080010024000366E01EC
:1017D000F0B587B00446FE4903C905910490FC4961
:1017E000083103C903910290002C02D1012007B0F7
:1017F000F0BD2078C007C00F00286DD0F54886687E
:1018000038210E40C0688707BF0F102E01D1032F6B
:1018100001D0082E0BD1EF4800680121490408408F
:1018200000286CD06068002869D10120DFE760687B
:1018300000280DD0A068002808D0E648006980087C
:101840008000A1680843E349086101E00120CEE778
:1018500000BF012109046068884205D1DD480068A5
:101860000843DC49086021E00521090460688842DA
:101870000ED1D8480068012189040843D549086081
:1018800008460068012109040843D24908600DE0B8
:10189000D0480068012109048843CE490860084601
:1018A0000068012189048843CA49086000BF606854
:1018B000002812D0FFF798FA054606E0FFF794FAE1
:1018C000401BC82801D9032091E7C24800680121C4
:1018D000490408400028F1D011E0FFF785FA0546D9
:1018E00006E0FFF781FA401BC82801D903207EE7F4
:1018F000B84800680121490408400028F1D10221BC
:1019000020680840022874D1B24880683821084015
:101910000646B048C0688707BF0F102E01D1022FBE
:1019200001D0002E48D1AB4800680121890208404F
:10193000002804D06069002801D1012057E7A5489C
:101940004068000C0004E1690843A2494860FFF7C1
:101950004BFA054606E0FFF747FA401B022801D97B
:10196000032044E79B4800680121890208400028C1
:10197000F1D0002E18D1974800680721C90288438A
:10198000A169084393490860FFF7A4FE914989685B
:101990000F2212021140090A89008F4A515CC906C0
:1019A000C90EC8408D4908608D480068FFF73CFAB1
:1019B000002848D001201AE7606900282AD085480D
:1019C00000680721C9028843A1690843814908606A
:1019D00008460068891508437E490860FFF704FA45
:1019E000054607E0FFF700FA401B022802D9032052
:1019F000FDE628E0774800680121890208400028B8
:101A0000F0D074484068000C0004E1690843714953
:101A1000486018E06F480068FF21013188436D4934
:101A20000860FFF7E1F9054606E0FFF7DDF9401B26
:101A3000022801D90320DAE66648006801218902FC
:101A400008400028F1D1082120680840082849D121
:101A5000604880683821084018280BD15D48403024
:101A6000006A0221084000283CD0206A002839D1B1
:101A70000120BCE6206A00281AD056484030006A8F
:101A800001210843534940310862FFF7ADF905468B
:101A900006E0FFF7A9F9401B022801D90320A6E6BA
:101AA0004C484030006A022108400028F1D019E07B
:101AB00048484030006A40084000464940310862CA
:101AC000FFF792F9054606E0FFF78EF9401B022862
:101AD00001D903208BE63F484030006A02210840CC
:101AE0000028F1D104212068084004287CD100207E
:101AF0000190384880683821084020280BD13548AB
:101B00004030C0690221084000286ED0E0680028FB
:101B10006BD101206BE62F48C06B010F0120884379
:101B2000002810D000BF2B48C06B012109070843D3
:101B30002849C8630846C06B09040840009000BFEC
:101B400000BF0120019027480068FF2101310840B3
:101B5000002816D123480068084322490860FFF78F
:101B600043F9054606E0FFF73FF9401B022801D97B
:101B700003203CE61B480068FF2101310840002893
:101B8000F1D0E068002817D003210904206908403B
:101B9000002808D10F4800698843012149044118F1
:101BA0000C48016108E00B480069032109048843DF
:101BB000216908430749086100BFE068012817D17F
:101BC00004484030C06901210843024940310DE01A
:101BD0004C25000800100240C4240008000000202A
:101BE0001C0000200070004054E052E0C8611BE07F
:101BF000E06805280CD17E48C069042108437C496F
:101C0000C8610846C069012108437949C8610BE0F1
:101C10007748C069400840007549C8610846C069F6
:101C2000042188437249C86100BFE068002812D0CF
:101C3000FFF7DAF8054607E0FFF7D6F8401B6D49D5
:101C4000884201D90320D2E56948C06902210840D1
:101C50000028F1D011E0FFF7C7F8054607E0FFF7CD
:101C6000C3F8401B6349884201D90320BFE560489F
:101C7000C069022108400028F1D10198012808D14B
:101C80005B484038C06B01210907884358494039F7
:101C9000C86300BF606A002874D055484038806827
:101CA0003821084010286ED0606A02286DD1504853
:101CB000403800680121090688434D4940390860D1
:101CC000FFF792F8054606E0FFF78EF8401B022862
:101CD00001D903208BE546484038006801214906B8
:101CE00008400028F0D1E06A80080690A06A032826
:101CF0000DD10698800004A908583F49884211D8A0
:101D00000698800002A908583B4988420AD3A06A75
:101D1000022809D100F058F90699890004AA5158FF
:101D2000884201D2012062E531484038C06880080D
:101D30008000A16A08432E494039C8600846C0683F
:101D40000C218843E16A084329494039C8600846A4
:101D50000068012109060843254940390860FFF75A
:101D600043F8054606E0FFF73FF8401B022801D97B
:101D700003203CE51E484038006801214906084020
:101D80000028F0D031E022E0FFE719484038006831
:101D90000121090688431649403908600846C06891
:101DA00080088000C860FFF71FF8054606E0FFF7CF
:101DB0001BF8401B022801D9032018E50C484038C5
:101DC00000680121490608400028F0D10DE0606A52
:101DD000012800D10BE506484038C768B907890FCC
:101DE000A06A814201D0012001E50020FFE400004B
:101DF000401002408813000000366E0170B50446A2
:101E00002546681E0949884201D901200CE0681E58
:101E1000074948610321081F00F03CFA00200449EB
:101E2000886107200861002070BD0000FFFFFF00EF
:101E300000E000E010B50446002C01D1012010BDE7
:101E4000A069002800D000E000BF4520005D002808
:101E500005D1002144200155204600F030F824210E
:101E6000452001552068C068012149038843216845
:101E7000C860204600F0F4F8206A002802D020460E
:101E800000F0D2F8206800690921C902884321685E
:101E90000861206840692A218843216848612068D8
:101EA000C0680121490308432168C8600020A0647C
:101EB000202145200155462001550020BFE77047ED
:101EC000FFB583B004460D4617460020019045201B
:101ED000005D202871D1002D01D0002F02D10120FA
:101EE00007B0F0BD01210903A068884208D120692C
:101EF000002805D1E807C00F002801D00120EFE736
:101F000000BF4420005D012801D10220E8E7012143
:101F10004420015500BF0020A06421214520015527
:101F2000FEF762FF01902786678601210903A068FA
:101F3000884205D12069002802D10026029502E0DE
:101F40002E46002002901EE006980090002280217C
:101F50002046019B00F056F9002801D00320BFE77E
:101F6000002E09D102980088C005C00D2168486084
:101F70000298801C029003E0307821684860761C4B
:101F8000608E401E6086608E0028DDD1069800902D
:101F9000002240212046019B00F034F9002801D0A6
:101FA00003209DE720214520015500BF002144204A
:101FB000015500BF002093E7FFE7022090E700BF34
:101FC000FEE770477047000004484068072252034C
:101FD0001040410B8800024A105870470010024020
:101FE00024250008704710B5FEF704FF10BD00005F
:101FF00009484068400E400601214903401807493E
:102000008968084306490989090408430249486068
:10201000C803044988607047001002400032FF1F67
:102020004033FF1F00ED00E04022016A114000290B
:1020300015D00168496992019143426A11430268CF
:10204000516101221203416A914208D10168496934
:10205000032252039143826A11430268516170471F
:10206000FEB5044620680069032109038843E1683E
:102070000843216808612169A06808436169084331
:1020800002902068C0685E490840029908432168B0
:10209000C860E0690290206840690121C902884354
:1020A00002990843216848612068406903210902B8
:1020B0008843A1690843216848610121C902E06998
:1020C00088424ED1FFF7F2FA0546626851001922A4
:1020D0006A431046FEF70CF806466421FEF708F83E
:1020E00007016268510019226A431046FEF700F8A2
:1020F00006466268510019226A431046FDF7F8FF50
:1021000064210090FDF7F4FF64214843301AC000B9
:1021100032300190FDF7ECFFF821084040003F18F5
:102120006268510019226A431046FDF7E1FF064636
:102130006268510019226A431046FDF7D9FF6421F5
:102140000090FDF7D5FF64214843301AC0003230BB
:102150000190FDF7CDFF4007400F381821688860D7
:102160004CE0FFF7A3FA05466268910019226A4322
:102170001046FDF7BDFF06466421FDF7B9FF0701D4
:102180006268910019226A431046FDF7B1FF0646C6
:102190006268910019226A431046FDF7A9FF642185
:1021A0000090FDF7A5FF64214843301A000132304A
:1021B0000190FDF79DFFF02108403F1862689100F3
:1021C00019226A431046FDF793FF064662689100A4
:1021D00019226A431046FDF78BFF64210090FDF73A
:1021E00087FF64214843301A000132300190FDF727
:1021F0007FFF0007000F381821688860FEBD0000CF
:10220000F3E9FFFFFFB581B004460D4617460A9E6D
:1022100024E0701C002821D0002E05D0FEF7E4FD3C
:102220000499401AB04219D92068C068FF21A13131
:1022300088432168C86020684069400840002168E0
:1022400048612021452001554620015500BF00214D
:102250004420015500BF032005B0F0BD2068006890
:102260002840A84201D1012000E00020B842D0D08F
:102270000020F1E70FB410B503A9044B044A0298FB
:1022800000F054F810BC08BC04B018477D240008C6
:102290002400002010B5002819DB1A4A03231B0272
:1022A000D21883089B00D2588307DC0EFF23A3407B
:1022B0009A438B071B0E8407E40EA3401A43114B6D
:1022C000032424021B198408A4001A5118E00E4AA2
:1022D00003071B0F083B9B089B00D2588307DC0EAB
:1022E000FF23A3409A438B071B0E8407E40EA340F1
:1022F0001A43054B0407240F083CA408A4001A51F4
:1023000010BD000000E100E01CED00E002E008C8A4
:10231000121F08C1002AFAD170477047002001E05F
:1023200001C1121F002AFBD170470000FFB58DB01C
:102330000446002506E025280AD0109A0F999047F8
:10234000641C6D1C20780028F5D1284611B0F0BD22
:1023500000270121484A009700E00743641C2378C6
:102360000846203B98401042F7D120782E2817D1FC
:10237000042007436078641C2A280CD10E98641C42
:1023800002C800910E900BE000990A2251433039A7
:102390004018641C00902078014630390929F3D98F
:1023A00020780028D1D0642808D0692806D0752864
:1023B0001ED0109A0F9990476D1C5BE00A200E9971
:1023C000019001C90E91002802DA40422D2102E05D
:1023D000390504D52B216A461172012103E0F90762
:1023E00004D02021F7E70BAE0B910DE00021FAE7B6
:1023F0000A200E99019001C90E91F7E70199FDF7A6
:1024000077FE3031761E31700028F7D103A8801B8B
:1024100020300190780701D5009801E0012000905C
:102420000199884201DD401A00E000200027009059
:1024300006E002A8109AC05D0F9990476D1C7F1CA2
:102440000B988742F5DB04E0109A30200F999047F3
:102450006D1C0099481E00900029F5DC05E03078DD
:10246000109A761C0F9990476D1C0199481E019097
:102470000029F4DC641C65E70928010013B50C464B
:102480007D23DB00012269460248FFF719FD009811
:102490001CBD00009C000020FEF7B8FCFDF754FFB7
:1024A0000020FDF78BFFFDF7BDFFFDF7F5FE06E011
:1024B0000348FEF735FB7D20C000FEF797FBF7E7EA
:1024C00028000020000000000000000000000000C4
:1024D00000000000000000000000000000000000FC
:1024E00000000000010000000200000003000000E6
:1024F00004000000060000000700000008000000C3
:1025000009000000000000000000000000000000C2
:1025100000000000010000000200000003000000B5
:102520000400000000093D0000127A000024F400BD
:102530004086510100366E0100093D0000093D0052
:1025400000093D000400010005000000001BB70069
:102550000024F40000366E0100366E0100093D00D3
:1025600000127A000024F4004086510100366E010A
:102570000200000003000000020000000200000052
:1025800000093D0000127A000024F4004086510149
:1025900000366E01B425000800000020280000006D
:1025A0000C230008DC25000828000020C0020000E1
:1025B0001C23000800127A00000000000000000048
:1025C0000000000000040050000400500000000063
:0C25D000040000000100000000000000FA
:04000005080000C12E
:00000001FF
