:020000040800F2
:10000000B0090020D50000082912000825120008B8
:1000100000000000000000000000000000000000E0
:10002000000000000000000000000000ED1B0008C0
:1000300000000000000000002B120008EF1B000869
:10004000E7000008E7000008E7000008E7000008F4
:10005000E7000008E7000008E7000008E7000008E4
:10006000E7000008E7000008E7000008E7000008D4
:10007000E7000008E7000008E7000008E7000008C4
:10008000E7000008E7000008E7000008E7000008B4
:10009000E7000008E7000008E7000008E7000008A4
:1000A000E7000008E7000008E7000008E700000894
:1000B000E7000008E7000008E7000008E91E000864
:1000C0000348854600F04EF8004800470921000823
:1000D000B00900200448804704480047FEE7FEE7D7
:1000E000FEE7FEE7FEE7FEE7F91B0008C100000897
:1000F00030B50B46014600202022012409E00D46C0
:10010000D5409D4205D31D469540491B2546954047
:1001100040191546521E002DF1DC30BD03460B433D
:100120009B0703D009E008C9121F08C0042AFAD2AD
:1001300003E00B780370401C491C521EF9D2704733
:10014000D2B201E00270401C491EFBD2704700226F
:10015000F6E710B513460A4604461946FFF7F0FFC6
:10016000204610BD064C0125064E05E0E36807CC8D
:100170002B430C3C98471034B442F7D3FFF7A4FF4D
:10018000BC350008DC35000830B58C180278401CFE
:1001900013071B0F01D10378401C120906D1027806
:1001A000401C03E005780D70401C491C5B1EF9D112
:1001B00001E00B70491C521EFBD1A142E6D3002086
:1001C00030BD00BFFEE7000000B591B0302105A8AA
:1001D000FFF7BDFF002001900290039004900F20D4
:1001E0000590FF2001300A9000200B901448008AEF
:1001F000C004C00C0121890308430C900020069024
:100200000D90089002200E9002210F910421109170
:1002100005A800F0D5FC002801D0FFF7D2FF072089
:10022000019002200290002003900490012101A877
:1002300000F05EFB002801D0FFF7C3FF11B000BD46
:100240000032FF1F08B500BF1748006801210843AE
:100250001549086008460068C007C00F009000BF3D
:1002600000BF00BF10484038C06B0121C9050843DA
:100270000D494039C8630846C06B0121C9050840D3
:10028000009000BF00BF01F0AFFF1F20002809DB76
:1002900000BF00BFC206D20E01219140034A116087
:1002A00000BF00BF00BF08BD4010024000E100E0F9
:1002B0000020064948600648406904210843044973
:1002C00048610448C106086070470000EC03002044
:1002D00000200240214334120021054A51600549A3
:1002E000496902221143034A5161FF2101607047AD
:1002F000EC03002000200240F0B502460B4600202F
:1003000014461D46104E766901273E430E4F7E610E
:1003100000BFEFF31086314672B60EE02E682660FD
:100320002D1D241D461CF0B23F2806D1064E7669CD
:100330000127FF043E43044F7E614028EED300BFF7
:1003400081F3108800BFF0BD0020024004494969D4
:100350000122D2021143024A5161FF21016070471C
:100360000020024070B5044600F046FA051905E089
:1003700000F042FAA84201D3032070BD064800698C
:10038000012109040840000C0028F1D1034802496A
:1003900008610020F1E70000002002401180000009
:1003A000F8B504460E460127002500BF8A480078AC
:1003B000012801D10220F8BD01208749087000BF43
:1003C00000BF86494968072252031140480B8449FF
:1003D00009688200834B9A581278914244D180492F
:1003E000496882009A581268D201D20D91423BD1DD
:1003F0007B49096982009A5812881204120E9142B0
:1004000032D17749896882009A58127A91422BD169
:100410007349C96882009A5892685201520D9142FC
:1004200022D16F49496982009A581269D203D20BCE
:10043000914219D16A49896982009A589269D20316
:10044000D20B914210D16649C96982009A58128C28
:1004500092B2914208D16249096A82009A58126A9E
:100460009200920C914244D000BF81005D4A5158E5
:1004700009785B4A116081005A4A51580968C901DC
:10048000C90D574A51608100564A515809880904DC
:10049000090E534A11618100524A5158097A504A53
:1004A000916081004F4A515889684901490D4C4A71
:1004B000D16081004B4A51580969C903C90B484AA8
:1004C00051618100474A51588969C903C90B444A9F
:1004D00091618100434A5158098C89B2404AD161E7
:1004E0008100404A5158096A8900890C3C4A1162CE
:1004F00000BF00BF2068042813D17D20C000FFF793
:1005000031FF002861D1FFF7D3FE7D20C000FFF747
:1005100029FF07463448406904218843324948612D
:1005200053E02068022824D17D20C000FFF71AFF85
:1005300000284AD1401E3060656813E02846FFF766
:10054000CBFE7D20C000FFF70DFF0746264840691F
:100550000221884324494861002F01D0356007E01B
:10056000FF350135A068000261684018A842E5D84F
:100570002BE00121C9022068884226D17D20C000DD
:10058000FFF7F0FE002820D1401E3060E56815E03E
:100590002846FFF7DBFE7D20C000FFF7E3FE07469D
:1005A000114840690121C90288430F494861002F61
:1005B00001D0356008E0012040032D182069400378
:1005C000E1684018A842E3D800BF00BF00200249FC
:1005D000087000BF3846EEE6EC0300200010024031
:1005E000002102409C3500080020024001200749FC
:1005F0004969C2071143054A516111464969C90F4A
:10060000C907002900D000207047000000200240E8
:10061000F8B507460C461646012500BF6448007829
:10062000012801D10220F8BD01206149087000BFF6
:1006300000BF60494968072252031140480B5E49D8
:10064000096882005D4B9A581278914244D15A4908
:10065000496882009A581268D201D20D91423BD16A
:100660005549096982009A5812881204120E914263
:1006700032D15149896882009A58127A91422BD11D
:100680004D49C96882009A5892685201520D9142B0
:1006900022D14949496982009A581269D203D20B82
:1006A000914219D14449896982009A589269D203CA
:1006B000D20B914210D14049C96982009A58128CDC
:1006C00092B2914208D13C49096A82009A58126A52
:1006D0009200920C914244D000BF8100374A515899
:1006E0000978354A11608100344A51580968C901B6
:1006F000C90D314A51608100304A515809880904B6
:10070000090E2D4A116181002C4A5158097A2A4A52
:1007100091608100294A515889684901490D264A4A
:10072000D1608100254A51580969C903C90B224A81
:1007300051618100214A51588969C903C90B1E4A78
:10074000916181001D4A5158098C89B21A4AD161C0
:1007500081001A4A5158096A8900890C164A1162A7
:1007600000BF00BFE0B2002801D001205BE77D2080
:10077000C000FFF7F7FD0546002D12D13146204697
:10078000FFF7BAFD7D20C000FFF7ECFD05460C48E1
:100790004069400840000A494861002D01D02846C0
:1007A00041E700BF00200249087000BF28463AE731
:1007B000EC03002000100240002102409C3500089C
:1007C00000200240002009494969C90FC9070029D2
:1007D0000BD00749054A9160064991601146496965
:1007E000C90FC907002900D001207047002002402E
:1007F00023016745AB89EFCD0148006870470000D1
:1008000004000020034800680349096840180149B2
:1008100008607047040000200C00002010B5002480
:10082000032000F009F8002801D0012401E000F0C5
:1008300033F8204610BD0000F8B5044600251348E3
:10084000006800281ED0114801687D20C000FFF715
:100850004FFC074639460E480068FFF749FC06463C
:1008600000F0C4FC00280BD1042C07D20022214642
:10087000401E00F033F80748046004E0012502E060
:10088000012500E001252846F8BD00000C000020ED
:10089000000000200800002008B500BF0E480068D6
:1008A000012108430C49086008460068C007C00FD2
:1008B000009000BF00BF00BF07484038C06B8905EB
:1008C000084305494039C8630846C06B090408401D
:1008D000009000BF00BF08BD4010024070B5044644
:1008E0000D4616462946204601F010FB70BD00005B
:1008F00070B504460D46002C01D1012070BD6B4837
:1009000000688007800FA84218D2684800688008F5
:100910008000284365490860FFF76EFF064607E040
:10092000FFF76AFF801B6249884201D90320E5E78F
:100930005E4800688007800FA842F1D1022120683C
:100940000840022815D1042120680840042807D156
:100950005848806807210903884340185549886032
:10096000544880680F2109028843A168084351490F
:1009700088602078C007C00F002854D06068012824
:1009800008D14C48006801214904084000282ED1B4
:100990000120B3E76068002808D1464800680121BB
:1009A00089020840002822D10120A7E760680228B8
:1009B00008D140480068012149060840002816D1A6
:1009C00001209BE76068042808D13A484030C0699C
:1009D0000221084000280AD101208FE73548403025
:1009E000006A02210840002801D1012086E7314831
:1009F0008068C008C000616808432E498860FFF71E
:100A0000FBFE064607E0FFF7F7FE801B28498842F9
:100A100001D9032072E727488068382108406168BF
:100A2000C9008842EFD1214800688007800FA842A2
:100A300018D91E4800688008800028431B490860B8
:100A4000FFF7DAFE064607E0FFF7D6FE801B1849DF
:100A5000884201D9032051E7144800688007800FBD
:100A6000A842F1D1042120680840042808D1114887
:100A70008068072109038843E16808430D498860BD
:100A800000F020F80B4989680F2212021140090A70
:100A90008900094A515CC906C90EC8400749086067
:100AA00007480068FFF7C8FE28E700000020024062
:100AB0008813000000100240743400080000002079
:100AC00008000020F0B58BB014223A4905A8FFF7C2
:100AD00025FB3848143001460EC9C06801AC0EC46D
:100AE00004903548806838210840002818D13248E1
:100AF000006809020840C10A012088400A902E4877
:100B00004068072149030840450B042D00D9002502
:100B1000A90005AA50580A99FFF7EAFA044645E0E9
:100B20002548806838210840082801D1234C3DE041
:100B30002148806838210840102825D11E48C06807
:100B40008707BF0F1C48C0680C2108408008800040
:100B500001A90E58022F05D0032F11D11748344692
:100B6000444310E014484068072149030840450BFE
:100B7000042D00D90025A80005A90C58744302E0F3
:100B8000059C744300BF11E00B4880683821084081
:100B9000202801D1840209E00748806838210840F4
:100BA000182802D10124E40300E0002420460BB001
:100BB000F0BD0000783500080010024000366E01DC
:100BC000F0B587B00446FE4903C905910490FC497D
:100BD000083103C903910290002C02D1012007B013
:100BE000F0BD2078C007C00F00286DD0F54886689A
:100BF00038210E40C0688707BF0F102E01D1032F88
:100C000001D0082E0BD1EF480068012149040840AB
:100C100000286CD06068002869D10120DFE7606897
:100C200000280DD0A068002808D0E6480069800898
:100C30008000A1680843E349086101E00120CEE794
:100C400000BF012109046068884205D1DD480068C1
:100C50000843DC49086021E00521090460688842F6
:100C60000ED1D8480068012189040843D54908609D
:100C700008460068012109040843D24908600DE0D4
:100C8000D0480068012109048843CE49086008461D
:100C90000068012189048843CA49086000BF606870
:100CA000002812D0FFF7A8FD054606E0FFF7A4FDD7
:100CB000401BC82801D9032091E7C24800680121E0
:100CC000490408400028F1D011E0FFF795FD0546E2
:100CD00006E0FFF791FD401BC82801D903207EE7FD
:100CE000B84800680121490408400028F1D10221D8
:100CF00020680840022874D1B24880683821084032
:100D00000646B048C0688707BF0F102E01D1022FDA
:100D100001D0002E48D1AB4800680121890208406B
:100D2000002804D06069002801D1012057E7A548B8
:100D30004068000C0004E1690843A2494860FFF7DD
:100D40005BFD054606E0FFF757FD401B022801D971
:100D5000032044E79B4800680121890208400028DD
:100D6000F1D0002E18D1974800680721C9028843A6
:100D7000A169084393490860FFF7A4FE9149896877
:100D80000F2212021140090A89008F4A515CC906DC
:100D9000C90EC8408D4908608D480068FFF74CFDBA
:100DA000002848D001201AE7606900282AD0854829
:100DB00000680721C9028843A16908438149086086
:100DC00008460068891508437E490860FFF714FD4E
:100DD000054607E0FFF710FD401B022802D903205B
:100DE000FDE628E0774800680121890208400028D4
:100DF000F0D074484068000C0004E1690843714970
:100E0000486018E06F480068FF21013188436D4950
:100E10000860FFF7F1FC054606E0FFF7EDFC401B1C
:100E2000022801D90320DAE6664800680121890218
:100E300008400028F1D1082120680840082849D13D
:100E4000604880683821084018280BD15D48403040
:100E5000006A0221084000283CD0206A002839D1CD
:100E60000120BCE6206A00281AD056484030006AAB
:100E700001210843534940310862FFF7BDFC054694
:100E800006E0FFF7B9FC401B022801D90320A6E6C3
:100E90004C484030006A022108400028F1D019E097
:100EA00048484030006A40084000464940310862E6
:100EB000FFF7A2FC054606E0FFF79EFC401B022858
:100EC00001D903208BE63F484030006A02210840E8
:100ED0000028F1D104212068084004287CD100209A
:100EE0000190384880683821084020280BD13548C7
:100EF0004030C0690221084000286ED0E068002818
:100F00006BD101206BE62F48C06B010F0120884395
:100F1000002810D000BF2B48C06B012109070843EF
:100F20002849C8630846C06B09040840009000BF08
:100F300000BF0120019027480068FF2101310840CF
:100F4000002816D123480068084322490860FFF7AB
:100F500053FC054606E0FFF74FFC401B022801D971
:100F600003203CE61B480068FF21013108400028AF
:100F7000F1D0E068002817D0032109042069084057
:100F8000002808D10F48006988430121490441180D
:100F90000C48016108E00B480069032109048843FB
:100FA000216908430749086100BFE068012817D19B
:100FB00004484030C06901210843024940310DE036
:100FC000683500080010024074340008000000205A
:100FD000080000200070004054E052E0C8611BE0AF
:100FE000E06805280CD17E48C069042108437C498B
:100FF000C8610846C069012108437949C8610BE00E
:101000007748C069400840007549C8610846C06912
:10101000042188437249C86100BFE068002812D0EB
:10102000FFF7EAFB054607E0FFF7E6FB401B6D49CB
:10103000884201D90320D2E56948C06902210840ED
:101040000028F1D011E0FFF7D7FB054607E0FFF7D6
:10105000D3FB401B6349884201D90320BFE56048A8
:10106000C069022108400028F1D10198012808D167
:101070005B484038C06B0121090788435849403913
:10108000C86300BF606A002874D055484038806843
:101090003821084010286ED0606A02286DD150486F
:1010A000403800680121090688434D4940390860ED
:1010B000FFF7A2FB054606E0FFF79EFB401B022858
:1010C00001D903208BE546484038006801214906D4
:1010D00008400028F0D1E06A80080690A06A032842
:1010E0000DD10698800004A908583F49884211D8BC
:1010F0000698800002A908583B4988420AD3A06A92
:10110000022809D100F092F80699890004AA5158E2
:10111000884201D2012062E531484038C068800829
:101120008000A16A08432E494039C8600846C0685B
:101130000C218843E16A084329494039C8600846C0
:101140000068012109060843254940390860FFF776
:1011500053FB054606E0FFF74FFB401B022801D971
:1011600003203CE51E48403800680121490608403C
:101170000028F0D031E022E0FFE71948403800684D
:101180000121090688431649403908600846C068AD
:1011900080088000C860FFF72FFB054606E0FFF7D8
:1011A0002BFB401B022801D9032018E50C484038CE
:1011B00000680121490608400028F0D10DE0606A6E
:1011C000012800D10BE506484038C768B907890FE8
:1011D000A06A814201D0012001E50020FFE4000067
:1011E000401002408813000000366E0170B50446BE
:1011F0002546681E0949884201D901200CE0681E75
:10120000074948610321081F00F080FE00200449BF
:10121000886107200861002070BD0000FFFFFF000B
:1012200000E000E000BFFEE77047704704484068F8
:10123000072252031040410B8800024A10587047A1
:1012400000100240D43400087CB504465F48019089
:101250000020009000251F2C07D000BF00BF2920D0
:10126000400300F0B7F800207CBD5848483881683A
:101270008162C168C162407C01280FDC5348483854
:1012800040685349884209D150484838807C012839
:1012900004DB4E484838807C102805DD29204003B7
:1012A00000F098F80020DFE748484838C07C25283F
:1012B00050D010DC1A283BD006DC00281AD00328B6
:1012C0001ED0122866D121E01B2825D01E2829D047
:1012D00023285FD138E05A2830D006DC28283FD0B8
:1012E0002A2849D02F2855D152E0A8283ED0AA2834
:1012F00050D147E0694601A800F0A0FB05464FE049
:10130000694601A800F03AFB054649E0694601A894
:1013100000F06CF8054643E0694601A800F06CFB5C
:1013200005463DE0694601A800F034F9054637E07E
:10133000694601A800F002F9054631E0694601A8B6
:1013400000F0C8F805462BE0694601A800F0D2FA83
:10135000054625E0694601A800F082FA05461FE02F
:101360000021084600F0D0F9054619E000210846A2
:1013700000F01CFA054613E00021084600F072FB5D
:1013800005460DE00021084600F0CAFB054607E0CF
:10139000002505E02920400300F01CF8002500BFCF
:1013A00000BF002D10D009484838007800280BD124
:1013B0000098002805D00098C1B2019801F086FD80
:1013C00002E0002001F06AFD28464DE7CC01002034
:1013D0005553424301020A0E03498A7401040A0E5E
:1013E0000149CA7408757047A401002070B58EB019
:1013F00004460D46242626A103C90D910C9026A172
:1014000003C90B910A90242225A101A8FEF786FEAC
:1014100000BF00BF2BA0006809902C48C0680028BE
:1014200006D129204003FFF7D5FF00200EB070BD84
:101430002648007DC007C00F00281AD02348407DF1
:10144000002806D1062632460CA92068FEF766FE63
:101450001AE01E48407D802806D1082632460AA997
:101460002068FEF75BFE0FE01948FFF7B3FF00208E
:10147000DCE71648C07D242801DA1448C67D3246D0
:1014800001A92068FEF74AFE2E600120CEE7000089
:1014900000000002008000000080000820202020C2
:1014A000008002021F000000202020202020202099
:1014B000202020202020202020202020202020202C
:1014C00020202020302E3031000000008401002038
:1014D0000024050070B588B004460D461B260F4851
:1014E000C068002806D129204003FFF773FF0020C1
:1014F00008B070BD0948C07E1B2801DA0748C67EC7
:101500001C2207A101A8FEF709FE324601A92068A6
:10151000FEF704FE2E600120EAE7000084010020AF
:10152000002600000000000008120000000000007B
:10153000000000000000000000000000F8B50446B4
:101540000D4604261148C068002805D12920400313
:10155000FFF740FF0020F8BD0C48C07D042801DAE9
:101560000A48C67D0AA00068009008482030407CE8
:10157000002802D08020694688703246694620687B
:10158000FEF7CCFD2E600120E5E70000840100207D
:101590000300000070B504460D460748C0680028E7
:1015A00005D029204003FFF715FF002070BD002063
:1015B000206028600120F9E78401002010B525484B
:1015C000C06B2449403109884843012149028842BF
:1015D00006D22048C06B1F4940310988484301E0CA
:1015E0000120400204461B492246886B483101F025
:1015F00011FC002804D01848FFF7ECFE002010BDB5
:101600001649087A22461349483101F00FF911486A
:10161000403001882046FEF76BFD0E49896B40186B
:101620000C4988630846403001882046FEF760FD7B
:101630000849C96B081A0749C8630846C06A011BF4
:101640000448C162C06B002802D103200149087020
:101650000120D4E78401002000110400A00500202F
:1016600070B50446002525492246886B483101F0B3
:10167000E7FB002804D02248FFF7ACFE002070BD35
:101680001E48403001882046FEF732FD1B49896B19
:1016900040181A4988630846403001882046FEF702
:1016A00027FD1649C96B081A1449C8630846C06A61
:1016B000011B1248C162C06B002802D101F0EEFB91
:1016C0001AE00E48C06B0D4940310988484301219A
:1016D0004902884206D20948C06B0849403109884E
:1016E000484301E0012040020546064908782A46A1
:1016F0000249483101F03CF80120C0E78401002094
:1017000000030400A005002070B504460D462548DE
:10171000007C80210840802803D12248C06800282E
:1017200005D129204003FFF755FE002070BD1D485C
:10173000407D01061B48807D000408431949C97D8E
:10174000090208431749097E084316498863084679
:10175000807E01021348C07E01431248C163806B42
:101760001049C96B40180F49496C884206D90E4888
:10177000FFF730FE00BF00BF0020D7E70948C06B6D
:1017800008494031098848430649C968884203D05E
:1017900000BF00BF0020C9E7022002490870FFF720
:1017A0000DFFC3E7840100200021050070B5044649
:1017B0000D462948007C80210840802803D1264816
:1017C000C068002805D129204003FFF703FE002050
:1017D00070BD2148407D01061F48807D00040843FC
:1017E0001D49C97D090208431B49097E08431A495E
:1017F00088630846407E01061748807E000408433F
:101800001549C97E090208431349097F0843124953
:10181000C8630846806BC96B40180F49496C884201
:1018200006D90E48FFF7D6FD00BF00BF0020CFE766
:101830000948C06B08494031098848430649C968CE
:10184000884203D000BF00BF0020C1E70220024948
:101850000870FFF7B3FEBBE78401002000210500FC
:101860007CB504460D462248C068002805D12920D1
:101870004003FFF7AFFD00207CBD1D48406C401EBB
:10188000000E694608701A48406C401E0002010EA6
:10189000684641701648406C401E0004010E6846C0
:1018A00081701348406C401EC1B26846C170104838
:1018B000403000880116684601710D4840300088AC
:1018C0000114684641710A48403000880112684698
:1018D00081710748403001786846C1710822694625
:1018E0002068FEF71BFC082028600120C4E70000E8
:1018F000840100203EB504460D461C48C0680028FF
:1019000005D129204003FFF765FD00203EBD18A248
:1019100007CA6B4607C31548406C000E694608713C
:101920001248406C0002010E684641710F48406C3D
:101930000004010E684681710C48406CC1B26846D3
:10194000C1710A4840300088011268468172074818
:10195000403001786846C1720C2269462068FEF763
:10196000DDFB0C2028600120D0E70000840100206E
:1019700000000008000000000200000070B586B002
:1019800004460D4612261648C068002806D12920B4
:101990004003FFF71FFD002006B070BD1048C07D5A
:1019A000122801DA0E48C67D14220EA101A8FEF706
:1019B000B5FB0B482030817C684681710848203097
:1019C000C17C6846017406482030017D6846417438
:1019D000324601A92068FEF7A1FB2E600120DBE75B
:1019E00084010020700000000000000A00000000D8
:1019F000000000000000000070B504460D460E48CF
:101A0000C068002805D029204003FFF7E3FC002030
:101A100070BD0948C07D8007800F012806D00648A8
:101A2000C07D8007800F022800D000BF002020600A
:101A300028600120ECE700008401002070B5044616
:101A40000D460748C068002805D029204003FFF74D
:101A5000C1FC002070BD0020206028600120F9E753
:101A60008401002070B505460E4600242A48007CFB
:101A700080210840002803D12748C068002805D1EC
:101A800029204003FFF7A6FC002070BD2248407DBE
:101A900001062148807D000408431F49C97D0902D1
:101AA00008431D49097E08431B4988630846807E18
:101AB00001021948C07E01431748C163C06B164933
:101AC00040310988484304461348806B1249C96B6A
:101AD00040181149496C884203D900BF00BF00205B
:101AE000D3E70D48C068A04201D00020CDE7012017
:101AF000094908704002844201D2204601E00120D9
:101B0000400204460549087822460349483100F05E
:101B10002FFE0120B9E7000084010020A00500206D
:101B200070B505460E4600242E48007C80210840F2
:101B3000002803D12B48C068002805D12920400384
:101B4000FFF748FC002070BD2648407D010625486F
:101B5000807D000408432349C97D090208432149C7
:101B6000097E08431F4988630846407E01061D48D8
:101B7000807E000408431B49C97E090208431949B5
:101B8000097F08431749C8630846C06B403109887C
:101B9000484304461348806B1249C96B40181149E9
:101BA000496C884203D900BF00BF0020CBE70D4835
:101BB000C068A04201D00020C5E701200949087093
:101BC0004002844201D2204601E001204002044646
:101BD0000549087822460349483100F0C9FD012033
:101BE000B1E7000084010020A0050020704710B577
:101BF000FEF708FE10BD00000A484068400E40068F
:101C00000121490340180849098989B20843074955
:101C100009890904084303494860C80304498860E6
:101C200070470000001002400032FF1F4033FF1FCA
:101C300000ED00E0FEB5A94800790290A74885793B
:101C4000477900F019FB0190042102980840002810
:101C500015D0FF218131A248FEF779FA4020A04932
:101C6000486000F0D1FF9D484078012108439B491E
:101C7000487001208872002048729A490870022139
:101C800002980840002801D000F0DCFF0298C0074D
:101C9000C00F002801D000F0DBFF9048807A05409B
:101CA000E807C00F002806D0002000F011FB00F06C
:101CB00079F96D086D000124A2E00120A0402840C0
:101CC000002871D0204600F003FB8448407D0421A9
:101CD0000840002804D08148407D88437F494875EA
:101CE000142060437E4928314018C26814206043A4
:101CF000085A824224D91420604340188268142074
:101D00006043085A1218142060434018826014205F
:101D100060434018026914206043085A12181420C6
:101D2000604340180261142060434018C2681420C8
:101D30006043085A121A142060434018C26020E021
:101D4000142060436649283140188268142060439B
:101D50004018C06812181420604340188260142094
:101D6000604340180269142060434018C06812188C
:101D70001420604340180261002214206043401880
:101D8000C26014206043564928314018C0680028BA
:101D90000BD1142262430B46D218116980222243D0
:101DA000104600F0A3FE24E028E0142060434C49D4
:101DB00028314018C26814206043085A824204D275
:101DC000142060434018C06804E014206043444974
:101DD0002831085A80B2009014206043404A2832CB
:101DE000801881682046009A00F078FA01203B496B
:101DF00048750120A040294681430D46601CC4B2AD
:101E0000002D00D059E73548407A074001245FE0B3
:101E10000120A0403840002858D0204600F058FA51
:101E20002E48407EC007C00F00284AD02B48868B22
:101E3000142060432A4AC8328018324681682046FE
:101E400000F032FA142060432549C83140188068F8
:101E500082191420604340188260142060434018A7
:101E60000069821914206043401802611420604305
:101E70004018C068821B142060434018C2601420C0
:101E80006043085AB04205DC142060434018C06823
:101E9000002810D11148407A0121A14088430F4900
:101EA0004872142060430E4AC832801801692046E7
:101EB00000F066FE05E00948407E40084000074902
:101EC00048760120A040394681430F46601CC4B2C9
:101ED000002F9DD1019800F0FBF9FEBD005C004091
:101EE000200400202000002010B5FFF7A3FE10BD45
:101EF00030B47446641E2578641CAB4204D3635D21
:101F00005B00E31830BC18471D46F8E710B5002801
:101F100019DB1A4A03231B02D21883089B00D258EC
:101F20008307DC0EFF23A3409A438B071B0E840715
:101F3000E40EA3401A43114B032424021B19840806
:101F4000A4001A5118E00E4A03071B0F083B9B0818
:101F50009B00D2588307DC0EFF23A3409A438B07D4
:101F60001B0E8407E40EA3401A43054B0407240FFD
:101F7000083CA408A4001A5110BD000000E100E0D4
:101F80001CED00E002E008C8121F08C1002AFAD1C7
:101F900070477047002001E001C1121F002AFBD1E9
:101FA0007047000070B55048057C04202840002888
:101FB00009D04D48007C042188434B490874002017
:101FC0004A49087070BD10202840002805D08020A4
:101FD00045490874002045490870454800780028A4
:101FE00006DD4348007840490870002040490870E9
:101FF0003E4800780300FFF77BFF070519733B6E2F
:102000006F697300E807C00F00280ED03648447C83
:10201000082C00D0D6E7082235492031002000F0F6
:1020200043F93348203000F0C9FC59E03048406B98
:102030002F49098D88420DD92D48806B2C49098D77
:1020400041182B488163406B2949098D411A284862
:10205000416307E02648816B406B0918244881637F
:10206000002141632248816B802000F03FFD37E072
:10207000E807C00F002828D01B48447C1C48C83003
:1020800022468168002000F00FF91948C8308068A6
:1020900001191748C8308160006901191448C83017
:1020A000016108380089A04205DC1148C830016987
:1020B000C068814206D10E48C8300169002000F096
:1020C0005FFD02E040200849087409E000218020FB
:1020D00000F00CFD04E000BF00200449087000BFC0
:1020E00000BF00BF6EE70000005C00402000002041
:1020F000200400200348407F002801D001207047C1
:102100000020FCE764010020FEF788FBFEF75CF886
:10211000FEF798F800BFFEE770B504460D46184874
:102120000078022804D0032816D0042823D117E011
:102130001348C07C282802D0A8280AD100E000BF9C
:10214000FFF73CFA002803D1012000F0A7FE70BD84
:1021500000E000BF00BF0FE0002000F09FFE0BE09A
:10216000002007490870074908781F220449091D03
:1021700000F0FEFA00E000BF00BF00BFE7E700008C
:1021800084010020A005002070B505460C461548C6
:102190000078002802D001281FD10AE02046FFF76E
:1021A00053F8002804D100BF00BF00F0C7FD70BD88
:1021B00014E00C48C07C2A2802D0AA280AD100E0EA
:1021C00000BF2046FFF74CFA002802D1012000F0A2
:1021D00065FE00E000BF00BF00E000BF00BF00BF21
:1021E000E5E700008401002010B5074800F028F959
:1021F00081220221054800F0C5FD044600F0ACF83C
:1022000000F098FD10BD0000F4340008CC0300205D
:1022100070B504460D4616466078FE2804D0FF28A7
:1022200007D100F0EDFD07E005482860012030608F
:1022300002E00020C04370BD00BF0020FBE70000AB
:10224000B901002070B504460D46012C02D0072CC0
:102250000AD102E000F0D4FD07E0054908781F220A
:10226000044900F085FA00E000BF00BF70BD000027
:10227000A0050020880100200148807B70470000F5
:10228000005C004010B50346012006E0C200934206
:1022900001D80A8010BD441CE0B24028F6DD0020C1
:1022A00008800120F6E70000F0B503460C46104612
:1022B000064E9F00F519002807D004E02E782670FE
:1022C000641C461EB0B20028F8D1F0BD205C00406E
:1022D0000149887370470000005C0040F0B5034678
:1022E0000C461046064E9F00F519002807D004E062
:1022F00026782E70641C461EB0B20028F8D1F0BDBE
:10230000205C004010B500F00FF80020FFF7E0FF60
:1023100000200449087007200872012088720020FC
:10232000487210BD005C00407047000001788022B8
:102330001140002906D001784906CB0D05494268B5
:10234000CA5006E001784906CB0D024920314268A7
:10235000CA5070474001002010B50A49897F0177B3
:10236000094B01461A4600E012681468002CFBD1A4
:1023700011600C6000BF0349897F491CCAB2014942
:102380008A7710BD6401002010000020F8B50646D1
:102390000F460748046808E025462869002803D04E
:1023A000394630462A6990472468002CF4D1F8BD9C
:1023B00010000020F7B505460F4628788007800FEB
:1023C000012818D11C48046812E0264670680028CD
:1023D0000DD0317F68792A7900021043C0B2814262
:1023E00005D1736839462846029A9847FEBD24688D
:1023F000002CEAD11CE028788007800F022817D132
:102400000D48046812E02646B06800280DD0317FE0
:1024100068792A79000210430012814205D1B3681D
:1024200039462846029A9847E0E72468002CEAD10A
:102430000020C043DAE700001000002070470000D1
:10244000034988610022FF3141318A7770470000DB
:10245000240000200020014908707047210000205E
:1024600001200149087070472100002070B5044622
:102470008021204688430546FFF7FEFE0646284693
:10248000FFF726FF80202040002815D1002D06D11F
:102490001648007C042188431449087421E013483D
:1024A000407E60218843114948760846407E80215D
:1024B00008430E49487614E0002D06D10B48007CF5
:1024C00004218843094908740BE00848407D302105
:1024D0008843064948750846407D40210843034922
:1024E00048753046FFF7F4FE002070BD005C0040E8
:1024F0000146002070470000F8B505460C468021D3
:10250000284688430646FFF7B7FE07463046FFF7E2
:10251000DFFE8020284000280AD1002E01D1207043
:1025200011E00B48407E20210840400920700AE05D
:10253000002E02D10020207005E00548407D1021CA
:102540000840000920703846FFF7C2FE0020F8BDA1
:10255000005C0040FEB50446002002900190207807
:1025600080218843054600270026002D13D14021F5
:102570005E480181002108308170012101714020F5
:102580005A49C0390885002158489838817001217E
:1025900001710020FEBD072D04DD00BF00BF00203B
:1025A000C043F7E7FFF768FE00902846FFF790FE6C
:1025B000207880210840002847D162881420684391
:1025C0004A4908310A5262781420684340188270E0
:1025D000012214206843401802710220384000286C
:1025E00000D0802608203840002802D03020064342
:1025F00005E004203840002801D020200643607800
:10260000012801D14020064339490E760846407E14
:10261000C007C00F002802D09020487602E080203A
:1026200033494876608802A9FFF72CFE80B20190FA
:102630002F49019888762D48C03840686946098935
:1026400040182A49C03948604AE06288142068432B
:10265000264998390A5262781420684340188270DB
:10266000012214206843401802712148807A012118
:10267000A94008431E498872F807C00F002801D0FE
:10268000802006430C203840002801D0102006434B
:102690006078012801D140200643202006431449D8
:1026A0000E750846407D02210840002803D04820CE
:1026B0000F49487502E040200D494875608802A91D
:1026C000FFF7E0FD80B2019009490198887507483D
:1026D000C03840686946098940180449C0394860D3
:1026E0000098FFF7F5FD002054E70000E00400200B
:1026F000005C004070B504468021204688430546B2
:10270000FFF7BAFD06462846FFF7E2FD802020408D
:10271000002812D1002D09D1072013490870134851
:10272000007C602108431149087418E00F48407E7E
:10273000202108430D49487611E0002D09D10720DA
:10274000094908700948007C60210843074908745A
:1027500005E00648407D102108430449487530468D
:10276000FFF7B6FD002070BD20000020005C004097
:10277000F8B507460D46164680213846884304467C
:10278000002D03D1002E01D0681EF8BD1420604337
:10279000234940180079002801D1801EF5E7FFF792
:1027A0006BFD00902046FFF793FD142060431C4909
:1027B00040188560142060434018C6600022142031
:1027C000604340180261002C18D116480078002898
:1027D00004D001280CD006280FD10AE01248007C52
:1027E000402108431049087403200E49087004E092
:1027F00000BF05200B49087000BF0BE00A48407A73
:102800000121A1400843084948720846407E40081B
:10281000400048760098FFF75BFD0020B5E7000018
:10282000E804002020000020005C0040F8B50746C6
:102830000E4614468021384688430546002E03D1B3
:10284000002C01D0701EF8BD142068435749401871
:102850000079002801D1801EF5E7FFF70DFD0090FB
:102860002846FFF735FD5248407DC007C00F0028BD
:1028700005D00098FFF72CFD0220C043E3E71420A9
:1028800068434A4940188660142068434018C46071
:1028900000221420684340180261002D68D1454889
:1028A0000078002804D0012830D003285FD157E0F9
:1028B000002C06D148203E49087404203D49087088
:1028C00023E040203A490874142068433749085AE5
:1028D000A0420CD338480078002808D1A2B2314673
:1028E0002846FFF7FBFC0A20314908740AE014204F
:1028F00068432E490A5A31462846FFF7EFFC02206A
:102900002B49087401202B49087030E0002C08D1B5
:10291000FFF7A0FD0A202649087406202549087003
:102920001DE0142068432149085AA0420CD32248D4
:102930000078002808D1A2B231462846FFF7CEFC25
:102940000A201B4908740AE01420684317490A5AF0
:1029500031462846FFF7C2FC02201549087406E0FC
:1029600048201349087404201249087000BF17E07A
:10297000002C12D0142068430C49085AA04207D2F8
:10298000142068430A5A31462846FFF7A7FC04E0A2
:10299000A2B231462846FFF7A1FC01200449487540
:1029A0000098FFF795FC00204DE700004804002048
:1029B000005C0040200000202100002070B505468A
:1029C000494C082229462046FDF7A8FBE079A17969
:1029D00000020843FF21013188420ADD207880216E
:1029E0000840002805D100BF00BF8020FFF782FE0D
:1029F00070BD3D481C303C498860E079A1790002F7
:102A000008433949C860E079A17900020843364992
:102A1000086100200875E079A179000208430028C8
:102A20000FD020788021084000280AD1E079A379CE
:102A30000002184302462C4881680020FFF798FEE8
:102A4000D6E7294A103211460839204600F01EFB0D
:102A5000002803D18020FFF74DFEC9E72248016915
:102A6000E079A27900021043814202D21E48006937
:102A700003E0E079A179000208431B49C8600846D9
:102A8000007A8007800F002812D00846C068FF2116
:102A90000131884202D900BF00BFA9E71248C268CD
:102AA00081681C30FDF73AFB0F481C300E498860E6
:102AB000E079A179000208430B49096988420AD9E3
:102AC0000948007C8006800E002804D101200649B8
:102AD0000875FFF7C5FC0448C26881688020FFF7CD
:102AE000A5FE00BF84E700002400002070B5044666
:102AF0000D46802C32D1204E304680684019314638
:102B000088600846C068401BC8600846C068002846
:102B100006D00846C26881688020FFF787FE1CE067
:102B20001548007D012808D10020134908750022AE
:102B300011468020FFF77AFE0FE0F079B1790002AC
:102B40000843002809D0307880210840802804D12B
:102B5000002211461046FFF70BFE0CE06006C10D87
:102B600006484058002806D06006C10D0348425868
:102B700029462046904770BD2400002040010020D7
:102B800070B504460D46002C2BD11D4E002D27D0CC
:102B9000304680684019314688600846C068401B4E
:102BA000C8600846C068002814D108461C308860F8
:102BB00002460C3A0831304600F068FA002803D18A
:102BC0008020FFF797FD70BD002211468020FFF79F
:102BD0002DFE05E00A48C26881680020FFF7C8FDA5
:102BE0000CE06006C10D07484058002806D060067A
:102BF000C10D0448425829462046904700BFE2E7ED
:102C0000240000206001002008B5002000F09EF99B
:102C100000210B480177417740216846418000211F
:102C2000417080210170FFF795FC0021684601701A
:102C3000FFF790FC00210120FFF7A8FB08BD000072
:102C40006401002010B500210620FFF79FFB10BD96
:102C500010B500210520FFF799FB10BDFCB5054616
:102C60000C4613460021002600220020019000900F
:102C7000FF20000228400112EEB2032910D1EE2EEF
:102C80000ED129480068002800D1FCBD2648006804
:102C90000068206024480068007918600120F4E78B
:102CA0000F290ED121480068002800D1EDE71F4808
:102CB0000068006820601D480068406818600120B6
:102CC000E3E7042902D0052900D001D90020DCE780
:102CD00017488269002001900DE05078884208D1A1
:102CE0000198B04202D10120009007E00198401CF9
:102CF00001901078121810780028EED100BF0098CB
:102D000000280DD02260022901D0072905D1907832
:102D1000D7783F023843186004E01078186001E06B
:102D200000BF00BF0098B0E7140000201C00002086
:102D30002400002010B5FFF7E5FA10BD10B50C48CF
:102D4000007C002807D10A48C068002803D0094940
:102D50000878FFF7CFFC0749087AFFF7CBFC054955
:102D600008781F220249091DFFF702FD10BD00006F
:102D700084010020A0050020C0230B6001235B021A
:102D80001380704770B504460D46164616486060BD
:102D90000020A060E06015482061154805701548C6
:102DA00013494860084606721349C160FFF7BEFA2E
:102DB0000F480830FFF7BAFA4921C9000F48FDF75C
:102DC000C6F90E4A4032111D0020FFF7D5FF0B480F
:102DD0004030008801214902884203DD00BF00BF66
:102DE000002070BD2046FCE71122000845220008A3
:102DF000A005002089210008192100088401002075
:102E000000200349087000210148203041747047B8
:102E100084010020F0B503460C4600215802074FFC
:102E2000C519264600BF04E0880028588F00F051DD
:102E3000491C90088842F7D80020F0BD00800008A7
:102E4000F0B587B005460E46174600200690FDF700
:102E5000B9FC0220009068020F4940180190F81D4B
:102E6000F830000A029006A96846FDF799FA002496
:102E70000AE02002801905902202019881180120A1
:102E8000059AFDF7C5FB641C0298A042F1D8FDF736
:102E9000ADFB002007B0F0BD0080000810B504466F
:102EA0000748084948620846243004730420087023
:102EB0000549087A0D2203492431FFF7B7FC10BDFC
:102EC0005553425384010020A005002070B50546EB
:102ED0000C460D48C068A04201D9204601E00A48CE
:102EE000C068C4B20320084908700849087A22461D
:102EF0002946FFF79BFC0448C06A011B0248C162D7
:102F000000212430017370BD84010020A005002041
:102F1000704738B50446A178684601706079217918
:102F2000000208434105490D68464180E078810769
:102F3000890F6846417069460878FFF7D9FA00287A
:102F400001D1012038BD0020FCE700000146002926
:102F500001D1034A1070034801700020704700003F
:102F6000005C004020040020FEB505460E461848CF
:102F70008469FF200190FF270020009022E0607804
:102F8000022804D0042808D0052817D108E0677962
:102F9000AF4201D10120009011E0E07801900EE0F5
:102FA000AF4202D10198B04203D02046FFF7B1FFF3
:102FB00005E0204600F00EF8009000E000BF00BFE2
:102FC0002078241820780028D9D10098FEBD000070
:102FD0002400002038B50446A17868460170607965
:102FE0002179000208434105490D68464180E07897
:102FF0008107890F68464170FFF7ACFA002801D1BC
:10300000012038BD0020FCE7F0B585B005460E462E
:103010001D48846900200390FF2002900190002049
:10302000009026E06078042802D005281DD10BE02E
:10303000E0780290A07801900198A84203D102980C
:10304000B04200D1039411E00198A8420CD1274668
:103050000298B04204D03846FFF75BFF009003E0CF
:103060003846FFF7B7FF009000E000BF00BF2078B0
:10307000241820780028D5D108200399FFF786F975
:10308000009805B0F0BD00002400002070B5044693
:103090000D461646207860210840002804D02028DC
:1030A00011D040282DD11DE032462946204600F09F
:1030B0002DF8002806DA00BF00BF2046FFF728FFE2
:1030C000002070BD1FE0324629462046FFF772F906
:1030D000002806DA00BF00BF2046FFF719FF0020D6
:1030E000EFE710E032462946204600F057F9002865
:1030F00006DA00BF00BF2046FFF70AFF0020E0E726
:1031000001E00020DDE700BF0120DAE7F8B5044662
:103110000D461646002720788007800F002804D02F
:1031200001280BD002281BD111E032462946204647
:1031300000F01CF8002800D1471E14E03246294652
:10314000204600F0C7F8002800D1471E0BE03246A9
:103150002946204600F06CF8002800D1471E02E006
:103160000027FF4300BF00BF3846F8BDF8B507464B
:103170000E461546F878B978000208430446012047
:10318000009078780300FEF7B3FE0C070F4A104A50
:10319000161C23262B46474A0020316808703168E8
:1031A0004870022028603DE000BF012C00D000BF25
:1031B0000020286036E0E0B2FFF7C8FE002028605B
:1031C00030E02A4631462046FFF748FD009029E0CE
:1031D0000020009026E0154830600120286021E0A2
:1031E000E4B220460021FFF7BFFE002805D10F48BA
:1031F0001D384477002101770AE00C481D384477D8
:103200000121017700210720FFF7C0F8FFF716F929
:103210000020286006E000BF0020009002E00020AF
:10322000009000BF00BF0098F8BD000081010020A1
:10323000FEB504460E461546607921790002084322
:10324000C7B201200090FEF755FF002800D1FEBD57
:103250006078002806D0012812D0032820D00C283E
:1032600032D12EE001A93846FFF746F968460079C9
:10327000316808700020316848700220286026E01C
:10328000E078A17800020843002805D100BF00BF04
:103290003846FFF7EBF81AE000200090286016E0AF
:1032A000E078A17800020843002805D100BF00BFE4
:1032B0003846FFF71FFA01E0002000900020286048
:1032C00005E00020009002E00020009000BF00BF59
:1032D0000098BCE7FEB504460D461646E078A17896
:1032E00000020843FF2109020840001201906079A2
:1032F000217900020843C7B201200090FEF7FAFED0
:10330000002800D1FEBD60780300FEF7F1FD0C0738
:10331000263F273F3F0F3F3F3F2A303F002029688D
:103320000870296848700220306032E00198222835
:1033300010D1194801680AE00A46107FB84205D149
:1033400050692860906930600120DBE70968002936
:10335000F2D100BF002000901BE000BF00200090D1
:1033600017E00020296808700120306011E0E27841
:10337000A37812021A43D1B26279237912021A4356
:10338000D0B2FFF741FE0020306002E00020009044
:1033900000BF00BF0098B5E710000020F8B5044654
:1033A0000D46164630480068002827D060782E4920
:1033B00009684979884240D160792179000208433F
:1033C000042802D0052814D109E027480068806845
:1033D000286025480068808930600020F8BD2248B8
:1033E00000680069286020480068808A30600020FA
:1033F000F4E700BF00BF0020C043EFE71B480068B0
:1034000000281AD06078194909688979884214D14E
:103410006079217900020843072809D11348006820
:103420000068286011480068808830600020D5E777
:1034300000BF00BF0020C043D0E70D4807680FE081
:10344000384600900098C068002808D0009832469E
:103450002946C36820469847002800D1BEE73F6848
:10346000002FEDD1781EB9E71400002018000020CD
:10347000100000200000000000000000000000001C
:10348000000000000000000000000000000000003C
:103490000000000001000000020000000300000026
:1034A0000400000006000000070000000800000003
:1034B0000900000000000000000000000000000003
:1034C00000000000010000000200000003000000F6
:1034D0000400000000093D0000127A000024F400FE
:1034E0004086510100366E0100093D0000093D0093
:1034F00000093D001201000200000040B736FFFF46
:1035000000020102030109022000010100803209CA
:1035100004000002080650020705020240000007EE
:10352000058102400000040309040A03500055000D
:10353000590041001C035000550059004100200073
:103540004D00530043002000440045004D004F0053
:1035500016033200300032003200310032003300F6
:103560003400350036000000001BB7000024F400D2
:1035700000366E0100366E0100093D0000127A002F
:103580000024F4004086510100366E010200000064
:103590000300000002000000020000003832FF1F9C
:1035A0006032FF1F8832FF1FB032FF1FD832FF1F6B
:1035B0003832FF1F3832FF1F3832FF1FDC3500085A
:1035C00000000020CC03000088010008EC35000852
:1035D000CC030020E4050000941F00086400127A68
:0C35E000420402FF0101FF01FF01C600D0
:04000005080000C12E
:00000001FF
